:020000040800F2
:10000000000B002001010008F1050008410500086F
:10001000DD050008B5010008511A000800000000C5
:100020000000000000000000000000001D0A0008A1
:100030009903000800000000C7080008DD0C000854
:100040001B0100081B0100081B0100081B01000820
:100050001B0100081B0100081B0100081B01000810
:100060001B0100081B0100081B0100081B01000800
:100070001B0100081B0100081B0100081B010008F0
:100080001B0100081B0100081B0100081B010008E0
:100090001B0100081B0100081B0100081B010008D0
:1000A0001B0100081B0100081B0100081B010008C0
:1000B000410D0008690D0008BD0E00081B01000875
:1000C0001B0100081B0100081B0100081B010008A0
:1000D0001B010008611700081B0100080118000837
:1000E0001B0100081B0100081B010008DFF80CD0F1
:1000F00000F02AF80048004729200008000B0020E3
:100100000648804706480047FEE7FEE7FEE7FEE7B1
:10011000FEE7FEE7FEE7FEE7FEE7FEE7E10C00088C
:10012000ED00000840EA01039B0703D009E008C97D
:10013000121F08C0042AFAD203E011F8013B00F8AC
:10014000013B521EF9D27047064C074D06E0E068AD
:1001500040F0010394E8070098471034AC42F6D30E
:10016000FFF7C8FFA0220008C022000870B50124D4
:1001700018E00E4951F8240001F06CFC022500BF84
:1001800000200B4908700321342001F01BFD64207E
:1001900000F003F90648007800B170BD6D1E002D17
:1001A000EED1641C0A2CE4DB00BFF6E778220008DD
:1001B0004000002000BFFEE710B500F01DFE00F07B
:1001C00055FE00F0BFF910BD2DE9F84F07460C466B
:1001D00090464FF00009CA4600250026A346A01D00
:1001E00000900425A7F1500010283AD2DFE800F073
:1001F0001608190F1E2326292C2F32393939393583
:100200004FF0340903254FF0400A01262BE04FF050
:100210003D0903254FF02E0A012624E04FF0300956
:1002200021E04FF037094FF003081CE04FF03A0986
:100230004FF0030817E04FF0410914E04FF0450973
:1002400011E04FF049090EE04FF04D090BE04FF07F
:10025000510908E04FF0550905E01448D0F8009026
:1002600001E0BDE8F88F00BFB8F1030F01D103250D
:1002700000265DB16A000E4901EB49005946FFF7BF
:1002800051FF294648460B4A126890475EB17200FA
:10029000074901EB4A000099FFF744FF31465046F9
:1002A000044A1268904700BFDBE700003C000020D2
:1002B000DC0500202800002010B5002400F02AF8FA
:1002C00004E0601CC4B2012000F080F84FF480719B
:1002D0000F4800F023F9012801D1642CF1DB642CD4
:1002E00001DB012010BD002404E0601CC4B2012029
:1002F00000F06CF84FF48071054800F00FF908B970
:10030000642CF2DB642C01DB0120EBE70020E9E741
:100310000008014008B54FF48070ADF800000420DB
:100320008DF803006946024800F06DF808BD000032
:100330000008014008B54FF48070ADF800001020AF
:100340008DF8030003208DF802006946014800F093
:100350005AF808BD0008014010B50121042000F042
:10036000D3FA00F003F8FFF7A7FF10BD10B5FFF7B1
:10037000E1FF4FF48071074800F0D9F8142000F035
:100380000CF84FF48071034800F0D3F81E2000F001
:100390001DF810BD00080140704700B5034603E09A
:1003A0004FF47A7000F012F8181EA3F10103F7D190
:1003B00000BD00B5034603E04FF47A7000F006F884
:1003C000181EA3F101018BB2F6D100BD00EBC001F4
:1003D000C9004FF0E02251610021916105211161B6
:1003E00000BF4FF0E021096901F480310029F8D005
:1003F00004214FF0E0221161704710B504462046F9
:10040000FFF7D7FF10BD2DE9F04102460025002679
:10041000002000230024002791F803C00CF00F05F2
:1004200091F803C00CF0100CBCF1000F03D091F850
:1004300002C04CEA050591F800C0BCF1000F31D0B4
:10044000146800202BE04FF0010C0CFA00F3B1F817
:1004500000C00CEA03069E4220D183004FF00F0C2F
:100460000CFA03F7BC4305FA03FC4CEA040491F8C8
:1004700003C0BCF1280F06D14FF0010C0CFA00FCB0
:10048000C2F814C00AE091F803C0BCF1480F05D1CE
:100490004FF0010C0CFA00FCC2F810C0401C0828F8
:1004A000D1D31460B1F800C0BCF1FF0F34DD546843
:1004B00000202EE000F1080C4FF0010808FA0CF3C0
:1004C000B1F800C00CEA03069E4221D183004FF030
:1004D0000F0C0CFA03F7BC4305FA03FC4CEA0404C6
:1004E00091F803C0BCF1280F05D100F1080C08FAFF
:1004F0000CF8C2F8148091F803C0BCF1480F07D182
:1005000000F1080C4FF0010808FA0CF8C2F810804E
:10051000401C0828CED35460BDE8F081024600207C
:1005200093680B400BB1012000E00020704741614F
:100530007047016170470AB1016100E04161704795
:1005400000BFFEE708B50121102000F0DDF90E2004
:10055000ADF8000048208DF8030003208DF802005C
:1005600069460448FFF74FFF0E210248FFF7E1FFFD
:1005700008BD00000010014008B50121082000F06E
:10058000C3F948208DF8030040F20130ADF80000B7
:1005900003208DF8020069460148FFF734FF08BDCB
:1005A000000C014008B50121102000F0ADF94FF416
:1005B0007070ADF8000010208DF8030003208DF856
:1005C000020069460448FFF71EFF4FF470710248AD
:1005D000FFF7ADFF08BD00000010014000BFFEE7BF
:1005E00010B5FFF7DFFF00F0BDFC00F0D5FC10BD3B
:1005F0007047000070B5002100230F22C47804B3B7
:10060000154C246804F4E064C4F5E064210AC1F1E7
:100610000403CA40447804FA03F184781440214367
:1006200009010E4C0678A155047804F01F05012439
:10063000AC4005786D11AD0005F1E025C5F800412D
:1006400009E0047804F01F050124AC40044D06784D
:10065000761145F8264070BD0CED00E000E400E0A6
:1006600080E100E002490143024A11607047000046
:100670000000FA050CED00E000200CE0002106E08F
:100680000022064B03EBC0135A544A1CD1B28029F6
:10069000F6DB421CD0B20828F0DB7047780000205F
:1006A00038B5002406E0002500E06D1CB5F57A7F22
:1006B000FBD3641CB4F57A7FF5D30121082000F048
:1006C00023F914208DF8030003208DF80200402048
:1006D000ADF8000069460848FFF795FE8020ADF8A8
:1006E000000069460448FFF78EFE012000F0B0F8D4
:1006F000012000F0B7F838BD000C014070B5054688
:10070000002411E080212141294009B1012100E0AC
:100710000021084600F0A6F8012000F099F800201A
:1007200000F096F8601CC4B2082CEBDB012000F04E
:100730008FF8002000F08CF870BD10B5012000F09B
:1007400091F8012000F084F8002000F08BF80020E0
:1007500000F07EF810BD10B5002000F083F80120F5
:1007600000F076F8012000F07DF810BD10B5FFF71D
:1007700097FFAE2000F080F8D52000F07DF88020B3
:1007800000F07AF8A82000F077F83F2000F074F825
:10079000D32000F071F8002000F06EF8402000F047
:1007A0006BF8A12000F068F8C82000F065F8DA20A6
:1007B00000F062F8122000F05FF8812000F05CF891
:1007C000CF2000F059F8D92000F056F8F12000F0C1
:1007D00053F8DB2000F050F8302000F04DF8A42052
:1007E00000F04AF8A62000F047F88D2000F044F809
:1007F000142000F041F8AF2000F03EF8FFF73CFF76
:1008000000F012F810BD70B505460C4645F0B0007A
:1008100000F032F8102141EA141000F02DF804F035
:100820000F0000F029F870BD10B500240BE0002186
:100830002046FFF7E8FF054901EBC410802100F0D6
:100840002BF8601CC4B2082CF1DB10BD780000202E
:1008500010B50446224640210148FFF76CFE10BD4A
:10086000000C014010B50446224680210148FFF7E4
:1008700062FE10BD000C014010B50446FFF75DFF9D
:100880007820FFF73BFF0020FFF738FF2046FFF7F7
:1008900035FFFFF760FF10BD70B505460E46FFF748
:1008A0004CFF7820FFF72AFF4020FFF727FF0024A6
:1008B00004E0285DFFF722FF601CC4B2B442F8DBFD
:1008C000FFF749FF70BD704729B1064AD26902435C
:1008D000044BDA6104E0034AD2698243014BDA61D6
:1008E000704700000010024029B1064A1269024315
:1008F000044B1A6104E0034A12698243014B1A61F6
:10090000704700000010024029B1064A9269024374
:10091000044B9A6104E0034A92698243014B9A6155
:10092000704700000010024029B1064AD268024315
:10093000044BDA6004E0034AD2688243014BDA6078
:10094000704700000010024030B500210022002452
:1009500000232D4D6D6805F00C0121B1042905D04F
:10096000082923D105E0294D056022E0274D0560C7
:100970001FE0254D6D6805F47012234D6D6805F478
:100980008034022505EB92421CB9214D5543056088
:100990000BE01D4D6D6805F400351DB11C4D554330
:1009A000056002E0194D5543056002E0174D0560F2
:1009B00000BF00BF144D6D6805F0F0010909154D29
:1009C0006B5C0568DD4045600F4D6D6805F4E061C6
:1009D000090A104D6B5C4568DD4085600A4D6D6805
:1009E00005F46051C90A0B4D6B5C4568DD40C5607C
:1009F000054D6D6805F44041890B074D6B5CC5687A
:100A0000B5FBF3F5056130BD0010024000127A001D
:100A100000093D0000000020100000207047000089
:100A200010B500222EE0362806D039280BD03C28FD
:100A300010D03F281CD114E0144B1B7843F0010365
:100A4000124C23701BE0114B1B7843F002030F4C38
:100A5000237014E00D4B1B7843F008030B4C2370FC
:100A60000DE00A4B1B7843F00403084C237006E0AA
:100A7000064B1B7843F08003044C237000BF00BF7B
:100A8000401C521C8A42CED310BD00004000002002
:100A900070B504460D462946204600F0B5FF70BDEE
:100AA00008B501211020FFF72FFF0E20ADF8000040
:100AB00048208DF8030003208DF8020069460448A1
:100AC000FFF7A1FC0E210248FFF733FD08BD00002F
:100AD0000010014000B587B001218803FFF714FF23
:100AE00001210420FFF710FF18208DF81B004FF4A0
:100AF0000070ADF8180003208DF81A0006A92148EF
:100B0000FFF781FC48208DF81B004FF48060ADF8A2
:100B1000180003208DF81A0006A91A48FFF773FC85
:100B20004FF4E13002900020ADF814000C20ADF835
:100B300012000020ADF81000ADF80E00ADF80C006A
:100B400002A9114800F0EAFE012240F225510E48A8
:100B500000F0BEFE4FF4A060FFF784FD25208DF865
:100B6000040001208DF807008DF805008DF80600BF
:100B700001A8FFF73FFD0121034800F066FE07B022
:100B800000BD0000000801400038014010B500F031
:100B900001F810BD0CB500200190009033480068AA
:100BA00040F480303149086000BF3048006800F4EC
:100BB000003000900198401C0190009818B90198ED
:100BC000B0F5A06FF1D12948006800F4003010B1F1
:100BD0000120009001E0002000900098012843D1FE
:100BE0002348006840F0100021490860084600686A
:100BF00020F0030008600846006840F0020008602A
:100C00001A484068194948600846406848600846E4
:100C1000406840F4806048600846406820F47C10DA
:100C200048600846406840F4E8104860084600689C
:100C300040F08070086000BF0C48006800F0007051
:100C40000028F9D00948406820F0030007494860AF
:100C50000846406840F00200486000BF0348406812
:100C600000F00C000828F9D10CBD00000010024073
:100C7000002002401FB504466020ADF800000120AE
:100C8000ADF80200601E80B2ADF806000020ADF89D
:100C900008006946034800F0F7FA0821014800F00F
:100CA0003FFB1FBD000C00401FB504466020ADF89F
:100CB00000000120ADF80200601E80B2ADF8060011
:100CC0000020ADF808006946034800F033FB082116
:100CD000014800F081FB1FBD000C00407047000080
:100CE00010B51348006840F001001149086008463B
:100CF0004068104908400E494860084600680E499F
:100D000008400B4908600846006820F4802008600D
:100D10000846406820F4FE0048604FF41F008860D9
:100D2000FFF734FF4FF000600449086010BD000079
:100D3000001002400000FFF8FFFFF6FE08ED00E0A3
:100D400010B50121880700F07FFA012808D1054875
:100D50000078401C034908700121880700F071F9F0
:100D600010BD00001400002010B501211D4800F046
:100D70006BFAB0B301211B4800F063F91A480088F0
:100D8000401C1949088008460088B0F5616F01D100
:100D90000020088014480088B0F5FA7F07D1402170
:100DA0001248FFF7C6FB02211148FFF7C2FB1148AA
:100DB0000078400000F24E200B490988884203D198
:100DC00040210A48FFF7B3FB0A484078400000F290
:100DD0004E2005490988884203D102210448FFF7C3
:100DE000A6FB10BD00040040760000200008014072
:100DF000000C0140550000201FB501210220FFF723
:100E000063FD194800F02CF940F28F10ADF808008E
:100E10000020ADF80400ADF80A00ADF8060001A905
:100E2000114800F0E9FA01210F4800F007F901220A
:100E300011460D4800F019FA01210B4800F004F9A1
:100E40004FF4C060FFF70EFC1D208DF8000000205D
:100E50008DF8010002208DF8020001208DF80300BA
:100E60006846FFF7C7FB1FBD0004004008B501211D
:100E70000820FFF749FD0320ADF800008DF80200BF
:100E800010208DF8030069460A48FFF7BCFA0121DB
:100E90000420FFF739FDFC20ADF8000003208DF899
:100EA000020010208DF8030069460348FFF7ABFAF3
:100EB00008BD0000000C01400008014010B50121F0
:100EC000064800F0C1F940B10121044800F0B9F82A
:100ED00003480068401C0249086010BD000800403B
:100EE000680000201FB501210420FFF7EDFC1C481D
:100EF00000F0B6F841F28830ADF808000020ADF8F7
:100F00000400ADF80A00ADF8060001A9144800F08D
:100F100073FA012240F2CF21114800F06AFA002151
:100F20000F4800F07FF8012211460D4800F09DF9AE
:100F300000210B4800F088F84FF4C060FFF792FBE7
:100F40001E208DF8000001208DF8010003208DF88F
:100F5000020001208DF803006846FFF74BFB1FBD20
:100F60000008004008B501210820FFF7ADFC012171
:100F70000420FFF7C9FC0320ADF8000018208DF80D
:100F8000030003208DF8020069460248FFF73BFA90
:100F900008BD00000008014000B587B040F2E7300E
:100FA000ADF814004720ADF810000020ADF8160091
:100FB000ADF8120004A9184800F01EFA6020ADF840
:100FC00000000120ADF8020014480088401E80B2E5
:100FD000ADF806000020ADF8080069460E4800F0A4
:100FE00053F908210C4800F09BF90120ADF80200EC
:100FF0000B480088401E80B2ADF8060069460648DE
:1010000000F098F90821044800F0E6F901210248AF
:1010100000F01AF807B000BD000C0040700000207E
:101020007200002021B1028842F08002028004E0B8
:1010300002884FF67F731A4002807047CA430282CB
:101040007047CA430282704721B1028842F0010210
:10105000028004E002884FF6FE731A400280704757
:1010600010B504466848844208D10121C014FFF736
:101070005BFC0021E014FFF757FCC4E0B4F1804FA3
:1010800008D101210846FFF72FFC00210120FFF7BE
:101090002BFCB8E05D48844208D101210220FFF713
:1010A00023FC00210220FFF71FFCACE058488442DB
:1010B00008D101210420FFF717FC00210420FFF7CD
:1010C00013FCA0E05348844208D101210820FFF717
:1010D0000BFC00210820FFF707FC94E04E488442F7
:1010E00008D101211020FFF7FFFB00211020FFF79E
:1010F000FBFB88E04948844208D101212020FFF70A
:10110000F3FB00212020FFF7EFFB7CE04448844202
:1011100008D101214014FFF707FC00216014FFF7FC
:1011200003FC70E03F48844209D10121C804FFF765
:10113000FBFB00214FF40020FFF7F6FB63E03A4889
:10114000844209D101210805FFF7EEFB00214FF48D
:101150008010FFF7E9FB56E03448844209D10121B1
:101160004805FFF7E1FB00214FF40010FFF7DCFB1F
:1011700049E02F48844208D101214020FFF7B4FB09
:1011800000214020FFF7B0FB3DE02A48844208D10F
:1011900001218020FFF7A8FB00218020FFF7A4FB9E
:1011A00031E02548844208D101218015FFF79CFBDE
:1011B0000021A015FFF798FB25E02048844209D1C3
:1011C00001210804FFF7B0FB00214FF48030FFF746
:1011D000ABFB18E01A48844209D101214804FFF70B
:1011E000A3FB00214FF40030FFF79EFB0BE01548F6
:1011F000844208D101218804FFF796FB00214FF4B7
:101200008020FFF791FB10BD002C0140000400403E
:1012100000080040000C0040001000400014004096
:1012200000340140004C0140005001400054014096
:1012300000180040001C0040002000400040014019
:10124000004401400048014030B502460020002320
:101250000024158A05EA0103958905EA010413B102
:101260000CB1012000E0002030BD1AB183890B438E
:10127000838102E083898B438381704701894FF624
:10128000F87211400181704770B5002400220023DC
:10129000058C4FF6FE7635400584028C8388048BDE
:1012A0004FF68F752C40B51E2C400D882C43751EB3
:1012B0002A400D892A434D882A43144DA8420BD059
:1012C000134DA84208D0134DA84205D0124DA84294
:1012D00002D0124DA84213D14FF6F7752A404D891E
:1012E0002A434FF6FB752A408D882A434FF6FF6547
:1012F0002B404FF6FF552B408D892B43CD892B4337
:1013000083800483CD888586028470BD002C0140D3
:1013100000340140004001400044014000480140C9
:101320000A460021018B4FF6F773194011430183E0
:101330007047000070B5002400220023058C4FF692
:10134000EF7635400584028C8388048B48F6FF7560
:101350002C404FF6FF452C400D884FF6FF7606EAED
:1013600005252C434FF6DF752A400D8906EA051541
:101370002A434D8806EA05152A43154DA84202D096
:10138000144DA8421DD14FF67F752A404D894FF666
:10139000FF7606EA05152A434FF6BF752A408D8869
:1013A00006EA05152A434FF6FF352B404FF2FF752D
:1013B0002B408D8906EA85052B43CD8906EA8505F4
:1013C0002B4383800483CD880587028470BD000091
:1013D000002C0140003401400A460021018B4FF2ED
:1013E000FF7319404FF6FF7303EA02231943018389
:1013F0007047018582827047002202881D4B984207
:101400000ED01D4B98420BD0B0F1804F08D01B4B33
:10141000984205D01A4B984202D01A4B984204D1F8
:101420004FF68F731A404B881A43174B984207D0D8
:10143000164B984204D04FF6FF431A40CB881A430C
:1014400002808B8883850B8803850A4B98420BD0DA
:10145000094B984208D00E4B984205D00D4B98424C
:1014600002D00D4B984201D10B7A0386012383826F
:1014700070470000002C014000340140000400408F
:1014800000080040000C0040001000400014004024
:101490000040014000440140004801401FB50121C7
:1014A0000846FFF711FA4FF08040FFF7E7FE0020F3
:1014B000ADF80A00ADF8060042F20F70ADF8080072
:1014C00041F61F40ADF8040000208DF80C0001A982
:1014D0004FF08040FFF790FF01218807FFF7AEFD36
:1014E000012211469007FFF7C0FE4FF4A060FFF7FE
:1014F000B9F81C208DF8000001208DF803000220AF
:101500008DF8010001208DF802006846FFF772F89F
:1015100001218807FFF798FD1FBD000010B54FF4AB
:1015200000518D48FEF7FAFFC0BB4FF480418A4856
:10153000FEF7F4FF012832D14FF49670FFF79AFBC3
:101540007820FFF7B1FB40218348FEF7F2FF8021AE
:101550008148FEF7ECFF4FF480717F48FEF7E9FF0A
:101560004FF400717C48FEF7E2FFC820FEF715FF3C
:1015700040217948FEF7DBFF80217748FEF7D7FF4F
:101580004FF480717448FEF7D2FF4FF40071724837
:10159000FEF7CDFF3220FEF700FF10BDFFE74FF44E
:1015A00000516D48FEF7BAFF012837D181036A4820
:1015B000FEF7B4FF88BB7820FFF75CFB4FF4967012
:1015C000FFF772FB40216448FEF7B3FF80216248B9
:1015D000FEF7ADFF4FF480715F48FEF7AAFF4FF4AE
:1015E00000715D48FEF7A3FFC820FEF7D6FE40213C
:1015F0005948FEF79CFF80215748FEF798FF4FF4AB
:1016000080715548FEF793FF4FF400715248FEF782
:101610008EFF3220FEF7C1FEBFE7FFE74FF4005117
:101620004D48FEF77BFF08BB4FF480414A48FEF768
:1016300075FFD8B9C820FFF71DFBC820FFF734FBA2
:1016400040214548FEF775FF80214348FEF76FFFB4
:101650004FF480714048FEF76CFF4FF400713E4834
:10166000FEF765FF3220FEF798FE96E74FF4005133
:101670003948FEF753FF01286BD181033648FEF746
:101680004DFF012865D1C820FFF7F4FAC820FFF705
:101690000BFB40213048FEF74AFF80212E48FEF721
:1016A00046FF4FF480712C48FEF741FF4FF4007164
:1016B0002948FEF73CFF2D20284908703220FEF70C
:1016C0006CFEB4202549087040212348FEF72FFF07
:1016D00080212148FEF72DFF4FF480711E48FEF750
:1016E00026FF4FF400711C48FEF723FF7820FFF718
:1016F000C1FA4FF49670FFF7D7FA40211648FEF76B
:1017000018FF80211448FEF712FF4FF48071124831
:10171000FEF70FFF4FF400710F48FEF708FF4FF47C
:10172000FA70FEF73AFE40210B48FEF700FF8021D9
:101730000948FEF7FCFE4FF480710748FEF7F7FEFC
:101740004FF400710448FEF7F2FE3220FEF725FE4A
:1017500023E700BF21E700000010014055000020F2
:1017600010B540F22551214800F088F801283CD1FD
:101770001E4800F03FF9C4B21D48007858B9402C0B
:101780002DD11C48007850BB012019490870002059
:101790001949087023E01648007801280FD1232C3E
:1017A00003D102201249087019E01448124909783F
:1017B000445411480078401C0F4908700FE00C4851
:1017C000007802280BD1232C09D100200849087089
:1017D0000A49094A1278885401200649087040F2E3
:1017E0002551024800F022F800BF10BD003801402A
:1017F00016000020150000201700002078040020AB
:1018000010B540F22551084800F038F858B10648A4
:1018100000F0F0F8C4B2204600F0CCFA40F22551B6
:10182000014800F003F810BD0048004010B5002248
:10183000002340F66A14A14200D100BF0A1201241D
:101840009440A3B2DC43048010BD21B1828942F4EC
:101850000052828104E082894DF6FF731A40828132
:10186000704702460020B1F5007F00D100BF138809
:101870000B400BB1012000E00020704770B502461C
:10188000002400230025002040F66A16B14200D152
:1018900000BFC1F3421501F01F03012606FA03F34E
:1018A000012D02D19689334006E0022D02D1168A1D
:1018B000334001E0968A33400C12012606FA04F404
:1018C0001688344013B10CB1012000E0002070BD37
:1018D000F0B50346002400260025002040F66A17D4
:1018E000B94200D100BF1846C1F3421401F01F06EF
:1018F000012707FA06F5012C01D10C3004E0022C77
:1019000001D1103000E014301AB107682F4307608E
:1019100002E00768AF430760F0BD00002DE9F04723
:1019200086B005460E460024A24600BFA146002709
:10193000B08900B100BF2F462C8A4CF6FF700440DE
:10194000F08804432C82AC894EF6F3100440B08832
:1019500031890843718908430443AC81AC8A4FF64E
:10196000FF400440B0890443AC8201A8FEF7ECFFBD
:101970001F48874202D1DDF810A001E0DDF80CA07D
:10198000A88900F4004040B10AEBCA0000EB0A103D
:1019900031684900B0FBF1F807E00AEBCA0000EB40
:1019A0000A1031688900B0FBF1F86420B8FBF0F050
:1019B00004012009642101FB1089A88900F400407A
:1019C00040B1322000EBC900B0FBF1F000F007009D
:1019D000044308E0322000EB09106421B0FBF1F071
:1019E00000F00F0004432C8106B0BDE8F087000032
:1019F0000038014001468888C0F308007047C1F3F1
:101A0000080282807047000070B504460D4600262B
:101A10000CE000BF80210A48FFF723FF0028F9D01F
:101A200014F8011B0648FFF7EAFF761CAE42F0D31C
:101A300000BF40210248FFF714FF0028F9D070BD15
:101A40000048004010B5FFF74DFA00F073F810BDE4
:101A500000BFFEE710B586B0044601210820FEF75E
:101A600053FF01218804FEF72FFF4FF48060ADF88B
:101A7000140018208DF8170003208DF8160005A912
:101A80001C48FEF7C0FC4FF40060ADF814000420C1
:101A90008DF8170005A91748FEF7B5FC0194002042
:101AA000ADF80800ADF80A00ADF80C00ADF8100074
:101AB0000C20ADF80E0001A90F48FFF72FFF0122FF
:101AC00040F225510C48FFF703FF01210A48FFF7B8
:101AD000BCFE27208DF8000001208DF801000820B1
:101AE0008DF8020001208DF803006846FEF782FDA4
:101AF00006B010BD000C01400048004010B54FF486
:101B00001650FFF7A7FF5021002000F045F80648C7
:101B100000F046FA054800F041F9054800F030F8B9
:101B2000FEF724FB10BD0000910A0008210A0008FE
:101B3000FB03000808B501211020FEF7E5FE202078
:101B4000ADF8000004208DF8030069460B48FEF74D
:101B50005AFC1020ADF800008DF8030003208DF82A
:101B6000020069460548FEF74EFC10210348FEF7C7
:101B7000DEFC20210148FEF7DAFC08BD0010014020
:101B8000014611B96FF0050070470248016000205E
:101B9000FAE700002C0000200246062A02D96FF066
:101BA0000500704704480260044801700020044B9F
:101BB000186000BFF5E7000038000020300000206A
:101BC000340000202DE9FC4104460D4660199028A0
:101BD00003D36FF00500BDE8FC8167480068072863
:101BE0007ED2DFE800F007285E8204275D006FF0F8
:101BF0000500F0E7042D02D96FF00500EBE75F4820
:101C0000006810B96FF00400E5E7FF208DF80000D0
:101C1000AA208DF8010027208DF80200E0B28DF88F
:101C20000300200A8DF8040005216846534A126813
:101C300090479CE000BF5148006810B96FF0040065
:101C4000C9E74FF6FF7000EA4506701DB0F5807FCA
:101C500002DD6FF00300BEE7494800788DF8000010
:101C600003208DF80100200A8DF80200E0B28DF803
:101C70000300280A8DF80400E8B28DF8050006215B
:101C8000684600F099F9064630128DF80600F0B269
:101C90008DF8070008216846384A1268904766E0C8
:101CA00000BF032D02D96FF0050094E735480068A6
:101CB00010B96FF004008EE7FF208DF80000AA2015
:101CC0008DF8010027208DF80200E0B28DF80300A6
:101CD000200A8DF80400052269462948007800E0B2
:101CE00042E0284B1B68984741E02748006810B93C
:101CF0006FF004006FE74FF6FF7000EA4506B6F597
:101D0000807F02DD6FF0030065E7E1B21C4A1278C4
:101D10005206100E33461D4ADFF86CC0DCF800C0D6
:101D2000E04701281FD11A48006810B96FF004007D
:101D300051E7002710E0154810F81700012101EBCA
:101D40004701124A515C40EA012000B23919114A98
:101D500022F81100781C87B2AF42ECD32946204606
:101D60000B4A1268904702E06FF0050033E700BFAE
:101D70000948046000202EE73800002018000020E9
:101D8000300000202400002020000020DC0400207F
:101D900028000020DC0500203C000020014611B98D
:101DA0006FF005007047024801600020FAE700006C
:101DB000280000202DE9FC4180467348006808B9DE
:101DC000BDE8FC81714801680068401C6F4A1060E2
:101DD0006F4800F801806F48006807285AD2DFE892
:101DE00000F0055BC2C3045AC10000BF6848007818
:101DF00055280CD065480068401E644908600846B4
:101E00006349491C0268481EFEF78CF9D8E75F4811
:101E100000680B283ED30A215D4800F0E9F8074628
:101E20005B48807AB8420CD058480068401E574939
:101E3000086008465649491C0268481EFEF772F9B8
:101E4000BEE7534880785249C97840EA0120ADF88E
:101E500000004F4800794E49497940EA0120ADF829
:101E600002004B4880794A49C97940EA0120ADF81F
:101E700004004748007A4649497A40EA0120ADF813
:101E800006004349487804226946FEF79DF9002080
:101E90003E4908606CE000BF3C480068022860D9F9
:101EA0003B48407803280CD038480068401E37492A
:101EB000086008463649491C0268481EFEF732F998
:101EC0007EE733488078401D30490968884200D950
:101ED00076E72E480068401E2D49095C2B480068B3
:101EE000801E2B4A105C41EA002528480088801E8D
:101EF00081B2104600F060F80646B5420CD0234887
:101F00000068401E2149086008462149491C0268B2
:101F1000481EFEF707F953E71D4880784510002456
:101F200014E0042000EB44001949085C032101EB94
:101F30004401174A515C40EA012000B21649096881
:101F40002144164A22F81100601C84B2AC42E8DB3E
:101F50002946114800680C4A1268904700200B4936
:101F6000086005E000BF00BF00200849086000BF0E
:101F700000BF06480068B0F5807F02D10020034909
:101F8000086000BF1CE7000028000020340000208B
:101F9000DC040020380000203C000020DC0500208C
:101FA000014611B96FF0050070470248016000203A
:101FB000FAE700001800002070B503460C46FF2524
:101FC000FF26002200BF00BF09E0985C80EA0501FF
:101FD0000548405C80EA06050448465C521CA24263
:101FE000F3DB46EA052070BD762000087621000864
:101FF00010B502460B460020002103E0545C044467
:10200000E0B2491C9942F9D310BD02E008C8121F82
:1020100008C1002AFAD170477047002001E001C1D1
:10202000121F002AFBD17047FFF738FAFEF758FE5F
:10203000FEF79CFBFEF7A0FAFFF760FDFEF78CF9B8
:10204000FEF7CEFAFFF7FEFCFEF72AFDFEF7B4F826
:10205000FEF740FD4FF41650FFF7FCFC7820FEF72A
:1020600009FE7820FEF720FE04E0FFF757FA0A2069
:10207000FEF7C3F9F9E700C1814001C0804101C00A
:10208000804100C1814001C0804100C1814000C148
:10209000814001C0804101C0804100C1814000C138
:1020A000814001C0804100C1814001C0804101C028
:1020B000804100C1814001C0804100C1814000C118
:1020C000814001C0804100C1814001C0804101C008
:1020D000804100C1814000C1814001C0804101C0F8
:1020E000804100C1814001C0804100C1814000C1E8
:1020F000814001C0804101C0804100C1814000C1D8
:10210000814001C0804100C1814001C0804101C0C7
:10211000804100C1814000C1814001C0804101C0B7
:10212000804100C1814001C0804100C1814000C1A7
:10213000814001C0804100C1814001C0804101C097
:10214000804100C1814001C0804100C1814000C187
:10215000814001C0804101C0804100C1814000C177
:10216000814001C0804100C1814001C0804101C067
:10217000804100C1814000C0C101C30302C2C60644
:1021800007C705C5C404CC0C0DCD0FCFCE0E0ACAAF
:10219000CB0BC90908C8D81819D91BDBDA1A1EDEFF
:1021A000DF1FDD1D1CDC14D4D515D71716D6D212AF
:1021B00013D311D1D010F03031F133F3F23236F6BF
:1021C000F737F53534F43CFCFD3DFF3F3EFEFA3A6F
:1021D0003BFB39F9F83828E8E929EB2B2AEAEE2EFF
:1021E0002FEF2DEDEC2CE42425E527E7E62622E26F
:1021F000E323E12120E0A06061A163A3A26266A6BF
:10220000A767A56564A46CACAD6DAF6F6EAEAA6A2E
:102210006BAB69A9A86878B8B979BB7B7ABABE7E7E
:102220007FBF7DBDBC7CB47475B577B7B67672B22E
:10223000B373B17170B050909151935352929656BE
:102240005797559594549C5C5D9D5F9F9E5E5A9AEE
:102250009B5B99595898884849894B8B8A4A4E8E7E
:102260008F4F8D4D4C8C44848545874746868242EE
:10227000438341818040000000000000C012000044
:1022800080250000004B00000096000000E10000E7
:1022900000C20100008403000008070000100E00C7
:1022A000C022000800000020780000000A2000087A
:1022B0003823000878000020880A00001A2000084F
:1022C00000000000010203040102030406070809DC
:1022D00002040608000000000000000000000000EA
:1022E00000000000000000000000000000000000EE
:1022F000FF000000000000000000000000000000DF
:1023000000FF0000000000000000000000000000CE
:1023100000000000003C3C3C3C3C3C3C3C000000DD
:1023200000000000000000000000000000000000AD
:08233000F401F40100000000BB
:04000005080000ED02
:00000001FF
