:020000040800F2
:10000000780C0020010100086D2000086D16000822
:1000100059200008F5100008513F000800000000BA
:10002000000000000000000000000000C52C0008D7
:10003000AB140008000000006D2B0008DD31000843
:100040001B0100081B0100081B0100081B01000820
:100050001B0100081B0100081B0100081B01000810
:100060001B0100081B0100081B0100081B01000800
:100070001B0100081B0100081B0100081B010008F0
:100080001B0100081B0100081B0100081B010008E0
:100090001B0100081B0100081B0100081B010008D0
:1000A0001B0100081B0100081B0100081B010008C0
:1000B0004132000869320008BD3300081B01000806
:1000C0001B0100081B0100081B0100081B010008A0
:1000D0001B010008613C00081B010008013D0008ED
:1000E0001B0100081B0100081B010008DFF80CD0F1
:1000F00000F0E0FD004800473D4E0008780C00206D
:100100000648804706480047FEE7FEE7FEE7FEE7B1
:10011000FEE7FEE7FEE7FEE7FEE7FEE7E131000867
:10012000ED00000840EA01039B0703D009E008C97D
:10013000121F08C0042AFAD203E011F8013B00F8AC
:10014000013B521EF9D27047421C10F8011B0029D6
:10015000FBD1801A704710B5002200E0521C835C6E
:100160008C5CA34201D1002BF8D1D8B2E1B2401A85
:1001700010BD30B505460020034600E05B1C9342ED
:1001800005D2EC5CC85C201A01D1002CF6D130BD40
:100190000FB400B58DB010A909900B9000914FF0ED
:1001A000FF300A9000200C90054806900548079003
:1001B0006A4609A80F9900F05FFC0DB05DF814FBCA
:1001C000950A0008B30A00082DE9FF5F1D464FF0AD
:1001D000FF3BD5E9014691465F464FF00008A9690B
:1001E0007F1C01988847296A824688470028F6D1F3
:1001F000BAF1FF3F0CD024F4C064002E19DD600674
:1002000014D5BAF12B0F09D0BAF12D0F0ED103E09E
:10021000584604B0BDE8F09F44F48064A9697F1C8F
:1002200001988847761E8246002E02DDBAF1300F13
:1002300003D0B9F1000F26D032E0A969761E44F44C
:1002400000747F1C019888478246002E05DDBAF1B4
:10025000780F06D0BAF1580F03D0B9F1000F10D0C3
:100260001EE0B9F1000F02D0B9F1100F18D1A96941
:10027000761E24F400747F1C019888478246102063
:1002800002E0082000E00A20814609E008FB090896
:10029000A969761E44F400747F1C01988847824641
:1002A000002E05DD4946504600F0D2FB0028EDDA6D
:1002B000E96901988847A00502D46FF00100A8E71A
:1002C000E00725D1600613D5600502D5C8F100000E
:1002D00000E0404629680A1D2A600968220501D508
:1002E000087015E0220701D5088011E008600FE0D2
:1002F0002868011D29600068210502D580F800806A
:1003000006E0210702D5A0F8008001E0C0F80080D7
:1003100038467EE7F0B480EA0102D40F4200B2EB27
:10032000410F02D20246084611464A0042D0C30D90
:10033000DDB2C1F3C752AD1A202D35DAC1F3160173
:1003400041F4000204B15242C5F1200602FA06F15E
:100350002A411044B3EBD05F23D0C4B1012DA0EBF0
:10036000C35009DCF0BC4FF0004202EAC352DBB2DA
:1003700000F5000000F0B7BB400000F1807000EB1A
:10038000C350A0F1807040EAD170490009E04908EB
:1003900041EAC071A0EBC35000F50000400800EB3B
:1003A000C350F0BC00F096BB6142012202EB410158
:1003B000001BF6E7F0BC704781F00041AAE780F02F
:1003C0000040A7E780EA010210B502F000434000B8
:1003D00022D04A001FD0010E01EB1261C0F356007B
:1003E000C2F3560240F4000042F40002A0FB0220D7
:1003F00000047F39140400D0401C50EA124001D49C
:100400004000491EC2B20C0604EBD010401C40084C
:10041000802A02D003E0002010BD20F00100002956
:1004200000DA0020184310BD30B480EA010202F067
:10043000004530F0004221F0004013D090B1C30DD0
:10044000D40DC2F31601C0F31600E41A41F4000102
:1004500040F400027D34914201D3641C00E0490065
:10046000002C02DA30BC002070474FF4000000235B
:10047000914201D3891A034340084FEA4101F7D161
:1004800051B1914202D14FF0004105E002D24FF04C
:10049000010101E06FF0010103EBC450284430BCBE
:1004A00000F018BB2DE9FE4F804681EA0300C00F23
:1004B0000C46009021F0004123F00045B8EB02000B
:1004C000A94105D24046214690461C460B460246AD
:1004D00023F00040104347D0270DC7F30A00C3F3B1
:1004E0000A510290401A019040286BDAC3F31300BE
:1004F00040F4801B0098924620B10023D2EB030AFF
:1005000063EB0B0B01985946C0F14002504600F0D6
:100510006EFA06460D4650465946019A00F086FA94
:1005200010EB08006141002487EA115284EAE77366
:100530001A4340D0009A62B3019A012A4FEA075247
:1005400015DC001B61EB02014FF0004202EA07528A
:10055000CDE90042001C41F5801132462B4600F0E7
:10056000FFFA03B0BDE8F08F40462146F9E7001BD3
:1005700061EB0201001C41F5801300185B4120185B
:10058000A2F5001747EB030140EAD570B6196D419B
:1005900011E06D084FEA360645EAC0754FEA07528A
:1005A000001B61EB0201001C41F5801149084FEA74
:1005B00030000019514132462B4603B0BDE8F04FE0
:1005C00000F0BFBA0098012240000023D0EB0202E5
:1005D00063EBE073009821464FEAE074B8EB00004B
:1005E00061EB0401E9E783F000435BE781F0004140
:1005F00058E72DE9FE4F81EA030404F0004421F09E
:10060000004100944FF0000B23F0004350EA010436
:100610005ED052EA03045BD0C3F30A54C1F30A5517
:100620002C44A4F2F3340194A0FB0254C1F313014F
:1006300041F48011C3F3130343F4801301FB02441C
:1006400000FB034E840A970A44EA815447EA835721
:10065000A4FB076802958D0A05FB07854FEA932CDA
:1006600004FB0C542705029D4FEA065847EA16374B
:10067000B5EB08056EEB070C870E920E47EA811763
:1006800042EA8312A7FB0201B6EB0B0164EB000404
:100690002B0D43EA0C335E1844EB1C50DA465146EE
:1006A000E7FB0201C5F313044FEA0B3343EA14538B
:1006B0004FEA0432019C43EA0603A4F10C040294BD
:1006C000009CCDE900B400F04BFA03B0BDE8F08F18
:1006D00000200146F9E72DE9F04D81EA030404F01A
:1006E000004B21F0004514464FF0000A23F0004172
:1006F00050EA050220D054EA01021DD0C5F30A5782
:100700000246C5F31303C1F31300C1F30A5640F4C4
:10071000801543F48013A7EB0608101BD64608F299
:10072000FD3873EB050002D308F1010801E09218CF
:100730005B41B8F1000F03DA00200146BDE8F08DFF
:1007400000204FF48011064684460EE0171B73EB21
:10075000050705D3121B63EB050306434CEA010CA6
:1007600049084FEA300092185B4150EA0107EDD189
:1007700052EA030012D082EA040083EA050108432A
:1007800005D0101BAB4106D20122002306E0002257
:100790004FF0004302E06FF0010253101AEB060025
:1007A0004CEB085110EB0A0041EB0B01BDE8F04D9A
:1007B00000F0C7B9C10F80EAE0700844CA07962369
:1007C000002100F090B996230022114600F08BB969
:1007D0000EB540F2334102910021CDE900110A46E5
:1007E0000B4600F0BDF903B000BD00F0004220F060
:1007F0000040C10DC0F3160040F400007F2901DA6B
:1008000000207047962903DCC1F19601C84001E041
:1008100096398840002AF4D04042704770B5C1F341
:100820000A5201F000450024C1F3130140F2FF33E6
:1008300041F480119A4201DA002070BD40F2334346
:100840009A42A2F2334203DC524200F0DFF800E0A9
:1008500090402C43F1D0404270BDC1F30A5210B514
:10086000C1F3130140F2FF3341F480119A4201DADF
:10087000002010BD40F233439A42A2F2334203DC1F
:10088000524200F0C3F810BD904010BD00F000428D
:1008900030F000400AD0C10D01F56071C0F31600C0
:1008A00042EA0151C2084007114370470020014647
:1008B0007047000030B5041E71F1000404DB4FF0F6
:1008C0000044404264EB0101141E73F1000405DB97
:1008D0001C464FF00043524263EB04038B4208BFB7
:1008E000824230BD30B5041E71F1000404DB4FF0CC
:1008F0000044404264EB0101141E73F1000405DB67
:100900001C464FF00043524263EB0403994208BF78
:10091000904230BD01F0004330B421F0004150EA74
:10092000010206D00A0DA2F56072C1F31301002A7C
:1009300002DC30BC00207047440F44EAC104C1000F
:10094000E01830BC00EBC25000F0C4B8002801DB56
:10095000C0F10040002901DBC1F100418142704734
:1009600030B50B46014600202022012409E021FA7F
:1009700002F59D4205D303FA02F5491B04FA02F57C
:100980002844151EA2F10102F1DC30BD2DE9F05F13
:100990000546002092469B468846064681464024EE
:1009A0001BE0284641464746224600F02FF85346B2
:1009B0005A46C01A914110D311461846224600F0FB
:1009C00016F82D1A67EB01084F4622460120002138
:1009D00000F00DF817EB00094E41201EA4F10104B0
:1009E000DFDC484631462A464346BDE8F09F202AD0
:1009F00004DB203A00FA02F1002070479140C2F176
:100A0000200320FA03F3194390407047202A04DBA7
:100A1000203A21FA02F00021704721FA02F3D04077
:100A2000C2F120029140084319467047202A06DB94
:100A3000CB17203A41FA02F043EAE07306E041FAAC
:100A400002F3D040C2F1200291400843194670479A
:100A50003A2800D2303820F02002412A01D3A2F1F6
:100A60003700884201D34FF0FF30704702681144CD
:100A70001378016018467047D160044951610449F8
:100A8000116200211161114600F02CB96D0A0008B5
:100A9000D90C0008426842B1016811F8013B23B14A
:100AA000521EC0E90012184670470121C160881E1D
:100AB000704742685AB1C368016843B983688B4282
:100AC00005D0491E521CC0E90012002070474FF0AB
:100AD000FF3070470029A8BF7047401C490008BF7D
:100AE00020F00100704710B4B0FA80FC00FA0CF05E
:100AF00050EA010404BF10BC704749B1CCF1200496
:100B000021FA04F411FA0CF118BF01212143084322
:100B1000A3EB0C01CB1D4FEA00614FEA102042BF4E
:100B2000002010BC704700EBC35010440029A4BF44
:100B300010BC7047401C490008BF20F0010010BCE9
:100B4000704710B5141E73F1000408DA401C41F11F
:100B5000000192185B411A4301D120F0010010BD41
:100B60002DE9F04D92469B4611B1B1FA81F202E0B7
:100B7000B0FA80F220329046FFF739FF04460F4664
:100B800040EA0A0041EA0B0153465A46084313D093
:100B9000114653EA010019D0C8F140025046FFF750
:100BA00035FF05460E46504659464246FFF71FFFA1
:100BB000084305D0012004E020463946BDE8F08D09
:100BC0000020054346EAE0762C4337430A98630544
:100BD000E40AA0EB08000022FD0A44EA47540A3068
:100BE00002D500200146E9E7010510196941DDE958
:100BF000084500196941BDE8F04DA2E72DE9F04133
:100C0000054621F000400C46284309D0C4F30A50A1
:100C100040F23341884205DD28462146BDE8F08197
:100C20002846FBE740F2FE31884210DC0CDB4FEA3D
:100C3000043040EA155050EA053105D0104804F060
:100C4000004101430020E9E700200146E6E7A0F269
:100C500033404642C6F1400228462146FFF7C7FE10
:100C600007468846284621463246FFF7CFFE4346D0
:100C70003A46FFF766FF3246BDE8F041FFF7B7BEE0
:100C80000000F03FC1F30A52C1F3130140F2FF33F9
:100C900041F480119A4202DA00200146704740F286
:100CA00033439A42A2F2334202DC5242FFF7AEBE15
:100CB000FFF79DBE064C074D06E0E06840F00103DB
:100CC00094E8070098471034AC42F6D3FFF712FAC5
:100CD000C8700008E8700008C0B24FF4F05100F08E
:100CE00097B900002DE9F34F8BB04FF0000801F1E8
:100CF0000C000C464FF0010B46460DF1080A01901E
:100D00006269012101989047051E2DD0252D2CD018
:100D1000216A8847C0B16269012101989047216A20
:100D200088470028F7D1411E62690198904700E08A
:100D3000761CA1690B988847216A88470028F7D15B
:100D4000E1690B988847DBE7A1690B98884707465C
:100D5000A84201D1761CD3E7E1690B9888477F1C34
:100D600002D1B8F1000F6FD046E1002762693D461D
:100D70003946019890472A2804D1626901210198D7
:100D800090470125DFF8849262690121019890471C
:100D9000A0F130010A290AD24F45E5DC07EB8701B3
:100DA00000EB4107303FDFD445F01005ECE7E906E2
:100DB00001D46FF000476C280AD04C2814D0682862
:100DC00015D06A280DD074281CD07A281AD01DE0BE
:100DD00062690121019890476C2802D045F0040512
:100DE00014E045F002050DE045F020050AE06269D7
:100DF000012101989047682802D045F0080505E0D8
:100E000045F400656269012101989047C4E90157E2
:100E100065283DD019DC58287AD00CDC452837D01D
:100E200004DC252826D0412831D131E046282FD0B6
:100E300047282CD12CE05B2877D0612828D0632864
:100E40007CD0642823D15AE0D0E06F2848D008DC59
:100E500066281DD067281BD0692821D06E2816D19E
:100E600027E0702845D0732868D0752847D07828A7
:100E70000DD14DE0A1690B988847054625283FF420
:100E800069AFE1690B9888476D1C3FF46AAFB3E026
:100E900023466A466FF001000B99AFF300809EE095
:100EA00045F040006060A80723464FF0000236D4AA
:100EB0003EE0E8077FF447AF2068011D216000682D
:100EC000290501D506701BE7290701D5068017E71C
:100ED000A90703D5F117C0E9006111E706600FE724
:100EE00045F040006060A80723464FF0080216D482
:100EF0001EE040F60E0125EA0100606016E045F0B4
:100F000040006060A80723464FF00A0207D40FE0B4
:100F100045F040006060A80708D5234610226FF016
:100F200001000B99AFF3008059E007E0234610223F
:100F30006FF001000B99FFF747F950E04FF00009FF
:100F40004F464B46632802D05B2806D040E0E806B7
:100F500001D40120A06001273AE0626901210198D3
:100F600090475E2805D14FF0010962694946019812
:100F70009047216939B900210A46534643F8212098
:100F8000491C0829FADBB0B3216969B9C11700EB24
:100F9000D16253110AEB830122F01F02821A012051
:100FA0000B68904003430B606269012101989047F0
:100FB0005D28E8D1B9F1000F09D00020514651F861
:100FC0002020D24341F82020401C0828F7DB02AB48
:100FD000224600976FF001000B99AFF300800028C4
:100FE0000CDA401C08D1BBF1000F05D04FF0FF30E8
:100FF0000DB0BDE8F08FFFE74046F9E7E90701D102
:1010000008F1010806444FF0000B79E6CCCCCC0C7B
:101010007F2801D9002208E0064A02EB5002C007EF
:10102000127800D1120902F00F020120904008400E
:10103000704700002C70000870B58C1810F8015B28
:1010400015F0070301D110F8013B2A1106D110F861
:10105000012B03E010F8016B01F8016B5B1EF9D165
:101060002B0705D40023521E0DD401F8013BFAE7EB
:1010700010F8013BCB1A921C03E013F8015B01F856
:10108000015B521EF9D5A142D8D3002070BD0000EB
:1010900070B5012418E00E4951F8240002F05AFFFF
:1010A000022500BF00200B4908700321342003F003
:1010B00009F8642000F0FAF90648007800B170BD24
:1010C0006D1E002DEED1641C0A2CE4DB00BFF6E798
:1010D000047000087800002008B500220092044A3D
:1010E0000092009A02440092009A116008BD00002C
:1010F000006C004000BFFEE710B502F0FDF802F002
:1011000035F900F0B5FA10BD2DE9F84F07460C4649
:1011100090464FF00009CA4600250026A346A01DB0
:1011200000900425A7F1500010283AD2DFE800F023
:101130001608190F1E2326292C2F32393939393533
:101140004FF0340903254FF0400A01262BE04FF001
:101150003D0903254FF02E0A012624E04FF0300907
:1011600021E04FF037094FF003081CE04FF03A0937
:101170004FF0030817E04FF0410914E04FF0450924
:1011800011E04FF049090EE04FF04D090BE04FF030
:10119000510908E04FF0550905E01448D0F80090D7
:1011A00001E0BDE8F88F00BFB8F1030F01D10325BE
:1011B00000265DB16A000E4901EB49005946FEF771
:1011C000B1FF294648460B4A126890475EB172004B
:1011D000074901EB4A000099FEF7A4FF314650464B
:1011E000044A1268904700BFDBE70000740000204B
:1011F00000070020600000200EB5012004F0EEFA88
:1012000053E000F077FF082328A20021084601F0F0
:101210005BFB10237F221946002000F0C7FF062346
:1012200026A23221002001F04FFB062326A2322104
:10123000462001F049FB01A902A800F00AF90028A4
:101240002ED1062322A2142101F03EFB0620022308
:1012500000909DF8082014214E2001F00FFB06237A
:101260001FA214215A2001F02FFB06231DA21E21CC
:10127000002001F029FB0620022300909DF80420A5
:101280001E214E2001F0FAFA062319A21E215A202F
:1012900001F01AFB01F0FAFB4FF4FA7000F006F9C6
:1012A000072004F09BFA00B10EBDAAE74448543170
:1012B000312053656E736F720000000050726573C9
:1012C00073204F4B2032000072657475726E0000FF
:1012D00054656D70657261747572653A0000000046
:1012E0004300000048756D69646974793A00000034
:1012F0002500000010B5002400F02AF804E0601C6E
:10130000C4B2012000F0EBF84FF480710F4800F0F8
:101310008EF9012801D1642CF1DB642C01DB012062
:1013200010BD002404E0601CC4B2012000F0D7F816
:101330004FF48071054800F07AF908B9642CF2DBAB
:10134000642C01DB0120EBE70020E9E70008014005
:1013500008B54FF48070ADF8000004208DF803004C
:101360006946024800F0D8F808BD000000080140B6
:1013700008B54FF48070ADF8000010208DF8030020
:1013800003208DF802006946014800F0C5F808BD49
:101390000008014010B50121042001F009FC00F013
:1013A00003F8FFF7A7FF10BD10B5FFF7E1FF4FF4FB
:1013B0008071074800F044F9142000F077F84FF4EA
:1013C0008071034800F03EF91E2000F088F810BD3F
:1013D0000008014010B5002404E0601CC4B20120E4
:1013E00000F07DF84FF48071114800F020F90128D9
:1013F00001D1642CF1DB002404E0601CC4B20120A4
:1014000000F06DF84FF48071094800F010F908B948
:10141000642CF2DB282000F062F84FF4807104485D
:1014200000F005F9012800D110BD0020FCE7000004
:101430000008014070B50024002506E06006040E97
:10144000FFF7C8FF0443681CC5B2082DF6DB204631
:1014500070BD7CB505460E46FFF7A6FFFFF74AFFB5
:10146000F8B9002405E0FFF7E5FF0DF80400601C63
:10147000C4B2052CF7DB9DF800009DF8011008446C
:101480009DF8021008449DF8031008449DF80410CC
:10149000884208D19DF8000030709DF80200287045
:1014A00001E001207CBD0020FCE7704700B5034649
:1014B00003E04FF47A7000F012F8181EA3F1010354
:1014C000F7D100BD00B5034603E04FF47A7000F099
:1014D00006F8181EA3F101018BB2F6D100BD00EB96
:1014E000C001C9004FF0E022516100219161052146
:1014F000116100BF4FF0E021096901F4803100293A
:10150000F8D004214FF0E0221161704710B5044675
:101510002046FFF7D7FF10BD2DE9F0410246002518
:101520000026002000230024002791F803C00CF0BF
:101530000F0591F803C00CF0100CBCF1000F03D0A4
:1015400091F802C04CEA050591F800C0BCF1000F0B
:1015500031D0146800202BE04FF0010C0CFA00F39E
:10156000B1F800C00CEA03069E4220D183004FF080
:101570000F0C0CFA03F7BC4305FA03FC4CEA040415
:1015800091F803C0BCF1280F06D14FF0010C0CFA02
:1015900000FCC2F814C00AE091F803C0BCF1480F87
:1015A00005D14FF0010C0CFA00FCC2F810C0401C31
:1015B0000828D1D31460B1F800C0BCF1FF0F34DDAE
:1015C000546800202EE000F1080C4FF0010808FAE2
:1015D0000CF3B1F800C00CEA03069E4221D183004F
:1015E0004FF00F0C0CFA03F7BC4305FA03FC4CEA6E
:1015F000040491F803C0BCF1280F05D100F1080CD8
:1016000008FA0CF8C2F8148091F803C0BCF1480F36
:1016100007D100F1080C4FF0010808FA0CF8C2F8E5
:101620001080401C0828CED35460BDE8F0810246EB
:10163000002093680B400BB1012000E000207047B0
:1016400041617047016170470AB1016100E0416189
:101650007047000004490968016003494968416016
:1016600001498968816070473808002000BFFEE7A3
:1016700008B50121102001F09BFA0E20ADF8000002
:1016800048208DF8030003208DF8020069460448C5
:10169000FFF742FF0E210248FFF7D4FF08BD00000C
:1016A0000010014010B500F01DF80446022C01D1D5
:1016B000012010BD0020FCE708B50121082001F041
:1016C00077FA48208DF8030040F20130ADF80000B1
:1016D00003208DF8020069460148FFF71DFF08BD91
:1016E000000C014010B500244FF400711A48FFF7B8
:1016F0009EFF68B91420FFF7D9FE4FF40071164819
:10170000FFF795FF30BB01241420FFF7CFFE21E047
:101710004FF480711048FFF78AFF68B91420FFF773
:10172000C5FE4FF480710C48FFF781FF90B9022489
:101730001420FFF7BBFE0DE001210748FFF777FFFC
:1017400040B91420FFF7B2FE01210348FFF76FFFF5
:1017500000B90324204610BD000C014070B50446BA
:10176000072004F03BF8E0B100201E490870B4F9EE
:101770000410206800EB0110406838B1B4F904206F
:10178000216801EB02114868804701E00020607485
:101790000120207400BF072004F020F80028FAD1AF
:1017A0001FE0082004F01AF820B100200D4908704D
:1017B000607416E0092004F011F8054685B168420E
:1017C00000B2E081204600F0F5FB012020740020EB
:1017D0000449087000BF092004F000F80028FAD17D
:1017E00000BF70BD1400002010B5044601206074D5
:1017F0002074A0800020E08020810120A0810020B2
:101800006081608112E0B4F90A10206800EB0112D7
:101810000021084600F097FAB4F90A20216801EB8C
:10182000021148736089401C00B26081B4F90A104B
:10183000206800EB0110006800782E28E3D1608951
:10184000401E00B2608110BD10B504462046FFF76F
:10185000CBFF11E0012003F0C1FF204600F0DAFACF
:10186000204600F035F8204600F012F8002003F082
:10187000B5FF2046FFF772FF607C0028EAD110BD5B
:1018800010B50248FFF7E0FF10BD00008401002002
:10189000F8B50646002418E0FFF704FF05460620C9
:1018A00002232A4664210090142000F0E7FFC4F1CF
:1018B0004000001B0090C4F18000031B224621461B
:1018C000042003F08BFF601C04B2012CE4DBF8BDA4
:1018D0002DE9FC5F0446207C002841D000202074C4
:1018E000B4F90410206800EB0110407B022101EBE9
:1018F000C000851C1426C5F1800707EBD77148107E
:10190000FEF758FFFE490860B4F9061001EB8101AB
:10191000022202EB8100FEF74DFFFA4908602846DB
:10192000FEF751FF8046F64801684046FEF7F2FC9C
:1019300007464FF07E51FEF73FFDF3490860304601
:10194000FEF741FF8046EF4801684046FEF7E2FCA3
:1019500007464FF07E51FEF72FFDEC49086000BFAF
:10196000EB480168E6480068FEF726FD8146FEF771
:101970008DFF07460022E74BFEF7B4FF1FD2E44875
:101980000168DF480068FEF717FD8346FEF77EFF1B
:101990000746E14AE14BFEF72CFE81468A46DC48C9
:1019A0000068FEF773FF07460022DA4BFEF77AFD68
:1019B0004A465346CDE90001FEF774FD32E0D448B3
:1019C0000168CF480068FEF7F7FC8146FEF75EFF2E
:1019D00007460022D24BFEF76DFF1FD2CC480168AC
:1019E000C7480068FEF7E8FC8346FEF74FFF07464E
:1019F000C94ACA4BFEF7FDFD81468A46C4480068C5
:101A0000FEF744FF07460022C24BFEF7ECFD4A46B4
:101A10005346CDE90001FEF745FD03E0B8480068F4
:101A2000FEF734FF0546FEF775FFB9490860BD486B
:101A30000168B4480068FEF7BFFC8146FEF726FF48
:101A400007460022B34BFEF74DFF1ED2B548016892
:101A5000AC480068FEF7B0FC8346FEF717FF074668
:101A6000AD4AAE4BFEF7C5FDCDE90001AD480068BB
:101A7000FEF70CFF07460022A64BFEF713FD81463A
:101A8000DDE90023FEF70EFD32E0A64801689D481F
:101A90000068FEF791FC8146FEF7F8FE074600223B
:101AA0009F4BFEF707FF1FD29E48016895480068CC
:101AB000FEF782FC8346FEF7E9FE0746964A974BFF
:101AC000FEF797FD81468A4696480068FEF7DEFEDF
:101AD000074600228F4BFEF786FD4A465346CDE966
:101AE0000001FEF7DFFC03E086480068FEF7CEFE4B
:101AF0000546FEF70FFF8B4908608B480168824856
:101B00000068FEF759FC8146FEF7C0FE074600223A
:101B1000804BFEF7E7FE1FD2834801687A480068D1
:101B2000FEF74AFC8346FEF7B1FE07467A4A7B4B36
:101B3000FEF75FFD81468A467B480068FEF7A6FEF9
:101B400007460022734BFEF7ADFC4A465346CDE9EB
:101B50000001FEF7A7FC32E0734801686A4800689C
:101B6000FEF72AFC8146FEF791FE074600226C4BE9
:101B7000FEF7A0FE1FD26C48016863480068FEF7BC
:101B80001BFC8346FEF782FE0746634A634BFEF763
:101B900030FD81468A4664480068FEF777FE0746B6
:101BA00000225C4BFEF71FFD4A465346CDE900017B
:101BB000FEF778FC03E054480068FEF767FE054630
:101BC000FEF7A8FE58490860584801684F48006869
:101BD000FEF7F2FB8146FEF759FE074600224D4B09
:101BE000FEF780FE1FD25148016848480068FEF7A2
:101BF000E3FB8346FEF74AFE0746474A474BFEF79C
:101C0000F8FC81468A4649480068FEF73FFE0746D1
:101C10000022404BFEF746FC4A465346CDE9000100
:101C2000FEF740FC32E04148016838480068FEF7A2
:101C3000C3FB8146FEF72AFE07460022384BFEF71B
:101C400039FE1FD23948016830480068FEF7B4FBFE
:101C50008346FEF71BFE07462F4A304BFEF7C9FCB2
:101C600081468A4631480068FEF710FE074600228A
:101C7000284BFEF7B8FC4A465346CDE90001FEF773
:101C800011FC03E021480068FEF700FE0546FEF760
:101C900041FE2649086008460068FEF7F7FD074642
:101CA0000022234BFEF7FEFB0546FEF7B7FD8146FB
:101CB0001D480068FEF7EAFD074600221C4BFEF7B0
:101CC000F1FB0546FEF7AAFD824616480068FEF7BE
:101CD000DDFD07460022164BFEF7E4FB0546FEF746
:101CE0009DFD83460A480068FEF7D0FD07460022A6
:101CF0000F4BFEF7D7FB0546FEF790FD534619E064
:101D00003C0000204000002044000020480000204B
:101D10002C0000200000B03F25068195438BD43F66
:101D20000000B0BF30000020340000203800002048
:101D30000000E03F5A460146CDE90090032003F041
:101D40004DFDBDE8FC9F2DE9F04190B005460E46E3
:101D50001446207B09284BD2DFE800F0050D141C47
:101D6000232A38313E00A06890F900206846216897
:101D700002F0B2FB42E0A06802786846216802F0F7
:101D8000ABFB3BE0A068B0F900206846216802F098
:101D9000A3FB33E0A06802886846216802F09CFB40
:101DA0002CE0A06802686846216802F095FB25E0F7
:101DB000A06802686846216802F08EFB1EE0A068F9
:101DC00002786846216802F087FB17E06846A2683F
:101DD000216802F081FB11E0A1680868FEF756FD5A
:101DE00007460B463A466846216802F075FB05E057
:101DF0006846A268216802F06FFB00BF00BF6B4617
:101E000032462946022003F0E9FCC0B210B0BDE81A
:101E1000F08100002DE9FC5F0446A088E188401AAB
:101E200000B22081B4F90C00B4F9081088420DD03A
:101E3000B4F90810B4F90C20891A01EB810188006B
:101E4000FEF7B8FC564908602089A081002154485B
:101E50000068FEF77BFD60D0514801680020FEF766
:101E6000ABFA8146FEF712FD074600224D4BFEF706
:101E700039FD1ED24A4801680020FEF79DFA8346CC
:101E8000FEF704FD0746484A484BFEF7B2FB814681
:101E90008A4643480068FEF7F9FC07460022414B9A
:101EA000FEF700FB4A465346CDE90001FEF7FAFA79
:101EB0002EE03B4801680020FEF77EFA8146FEF7DF
:101EC000E5FC074600223A4BFEF7F4FC1ED23448EC
:101ED00001680020FEF770FA8346FEF7D7FC07463C
:101EE000314A324BFEF785FB81468A462C48006812
:101EF000FEF7CCFC074600222A4BFEF774FB4A464D
:101F00005346CDE90001FEF7CDFA01E0002001467D
:101F10000546FEF7FFFC224908604FF0FF353AE026
:101F2000B4F908002844002800DA32E0B4F90800C7
:101F30002844B4F90A10884200DD2EE0B4F90820E4
:101F40002A44216801EB0211497B8022A2EBC100E7
:101F500000EBD0714E1012480068FEF746FC05EB0E
:101F60008501022202EB8101891C084407B2B4F901
:101F700008102944206800EB011239463046FFF76B
:101F8000E2FEB4F908202A44216801EB02114873EB
:101F900000BF681C05B2032DC2DD00BFBDE8FC9F79
:101FA000280000200000B03F25068195438BD43FD8
:101FB0000000B0BFC188C289114409B2C1808188C4
:101FC000C289114409B28180B0F90410B0F90A2025
:101FD000914201DD41898180B0F90410002901DAC4
:101FE00000218180B0F90610022901DD0221C180A3
:101FF000B0F90610B0F90A20914201DD4189C18093
:10200000B0F90610B0F90420914201DD8188C18049
:10201000B0F90610002901DA0021C18070470000E4
:1020200008B50121102000F0C3FD4FF47070ADF829
:10203000000010208DF8030003208DF8020069468F
:102040000448FFF769FA4FF470710248FFF7F8FA95
:1020500008BD00000010014000BFFEE710B5FFF70B
:10206000DFFF01F0FFF901F017FA10BD7047000023
:1020700070B5002100230F22C47804B3154C2468E6
:1020800004F4E064C4F5E064210AC1F10403CA4029
:10209000447804FA03F184781440214309010E4C7A
:1020A0000678A155047804F01F050124AC4005789A
:1020B0006D11AD0005F1E025C5F8004109E0047897
:1020C00004F01F050124AC40044D0678761145F854
:1020D000264070BD0CED00E000E400E080E100E08F
:1020E00002490143024A1160704700000000FA05EE
:1020F0000CED00E000200CE0002106E00022064B81
:1021000003EBC0135A544A1CD1B28029F6DB421C9F
:10211000D0B20828F0DB70479C0100202DE9F04385
:1021200004460D4616461F46284638E0224631E052
:10213000002A2DDB7F2A2BDC002829DB3F2827DC27
:102140004FEAE07C00EB5C7C4FEAEC0CDFF8588057
:1021500008EBCC1C1CF802C003464FEAE07800EB09
:1021600058784FEAE808A0EBC8094FF0010808FAD0
:1021700009F82CEA080C01464FEAE07800EB5878A1
:102180004FEAE808DFF8209009EBC81808F802C009
:10219000511C0AB2A1199142CADC411C08B2E919CA
:1021A0008142C3DCBDE8F0839C0100202DE9FF4F94
:1021B00086B0069E079CDDF82080DDF82490002084
:1021C000019000904C450FD1464502DDB24646468F
:1021D000D046354605E02146284600F0A3F8681CA5
:1021E00005B24545F7DD99E046450FD14C4502DD86
:1021F000A2464C46D146274605E03946304600F017
:1022000091F8781C07B24F45F7DD87E0464505DDBC
:10221000B2464646D046A2464C46D1464C4507DD1E
:10222000604204B2C9F100000FFA80F90120019068
:10223000A9EB0400A8EB0601884207DDB24626465A
:102240005446C246C846D14601200090A8EB06007D
:1022500000B20590A9EB04000FFA80FB4FEA4B0097
:1022600000B203900598ABEB0000400000B2029072
:102270000598C0EB4B0000B2049035462746019804
:1022800038B1009828B1684201B2384600F04AF8E7
:1022900012E0019828B1784201B2284600F042F8D5
:1022A0000AE0009820B12946384600F03BF803E0E8
:1022B0003946284600F036F82EE0681C05B204982E
:1022C000002805DADDE90310084400B2049006E0B6
:1022D000781C07B202990498084400B2049001984F
:1022E00038B1009828B1684201B2384600F01AF8B7
:1022F00012E0019828B1784201B2284600F012F8A5
:102300000AE0009820B12946384600F00BF803E0B7
:102310003946284600F006F84545CEDB0AB0BDE850
:10232000F08F000070B50346002B20DB7F2B1EDCF6
:1023300000291CDB3F291ADCCC1701EB5474E41094
:102340000B4D05EBC414E45C0A46CD1701EB557543
:10235000ED10A1EBC5060125B5402C430846CD176D
:1023600001EB5575ED10024E06EBC515EC5470BD32
:102370009C0100202DE9F04705460E461746984679
:10238000DDF820A0BAF1000F24D12C460CE0314634
:102390002046FFF7C7FF06EB0800401E01B22046AB
:1023A000FFF7C0FF601C04B2E819A042EFDC34461E
:1023B0000BE021462846FFF7B5FFE919491E08B290
:1023C0002146FFF7AFFF601C04B206EB0800A042F5
:1023D000EFDC14E02C460FE0B14607E0494620460A
:1023E000FFF7A0FF09F101000FFA80F906EB0800E2
:1023F0004845F3DC601C04B2E819A042ECDCBDE8FF
:10240000F087000038B5002406E0002500E06D1CD0
:10241000B5F57A7FFBD3641CB4F57A7FF5D301213F
:10242000082000F0C5FB14208DF8030003208DF870
:1024300002004020ADF8000069460848FFF76CF83C
:102440008020ADF8000069460448FFF765F80120D8
:1024500000F030FB012000F037FB38BD000C0140DC
:1024600070B50546002411E080212141294009B1C1
:10247000012100E00021084600F026FB012000F0C9
:1024800019FB002000F016FB601CC4B2082CEBDB2B
:10249000012000F00FFB002000F00CFB70BD10B518
:1024A000012000F011FB012000F004FB002000F0EF
:1024B0000BFB002000F0FEFA10BD10B5002000F06C
:1024C00003FB012000F0F6FA012000F0FDFA10BD38
:1024D00010B5FFF797FFAE2000F000FBD52000F00D
:1024E000FDFA802000F0FAFAA82000F0F7FA3F2069
:1024F00000F0F4FAD32000F0F1FA002000F0EEFA38
:10250000402000F0EBFAA12000F0E8FAC82000F02B
:10251000E5FADA2000F0E2FA122000F0DFFA81207A
:1025200000F0DCFACF2000F0D9FAD92000F0D6FA7A
:10253000F12000F0D3FADB2000F0D0FA302000F0D8
:10254000CDFAA42000F0CAFAA62000F0C7FA8D2028
:1025500000F0C4FA142000F0C1FAAF2000F0BEFA77
:10256000FFF7C8FD00F092FA10BD10B50246012039
:1025700000E050430B1EA1F10101FAD110BD000093
:102580002DE9F04304460D4616461F46284638E01E
:10259000224631E0002A2DDB7F2A2BDC002829DBB4
:1025A0003F2827DC4FEAE07C00EB5C7C4FEAEC0C38
:1025B000DFF8588008EBCC1C1CF802C003464FEA39
:1025C000E07800EB58784FEAE808A0EBC8094FF034
:1025D000010808FA09F88CEA080C01464FEAE0788D
:1025E00000EB58784FEAE808DFF8209009EBC818AC
:1025F00008F802C0511C0AB2A1199142CADC411C60
:1026000008B2E9198142C3DCBDE8F0839C010020D7
:1026100070B505460C4645F0B00000F05FFA102199
:1026200041EA141000F05AFA04F00F0000F056FAD4
:1026300070BD0000F8B506460F4614461D46082D2D
:102640000CD1A4F12000164901EB00101023082240
:1026500039460090304600F093F820E0062D0ED168
:10266000A4F1200000EB40000E4901EB40000823DC
:10267000062239460090304600F082F80FE0252D02
:102680000DD1A4F1300000EBC000074901EB401070
:102690003C23242239460090304600F071F8F8BD02
:1026A000B4640008A46A0008745900082DE9FF5FAB
:1026B00086B0074614461D46DDF85080169E00225F
:1026C000134620462946FEF70DF906D833462B223D
:1026D00038460799FFF7AEFF07E033462D2238460C
:1026E0000799FFF7A7FF85F0004520462946FEF72A
:1026F000B4F882465046FEF76BF822462B46CDE9E9
:102700000401FDF773FF04460D460A201599FFF7F3
:102710002CFF81464846FEF75BF822462B46CDE962
:102720000001FDF766FFCDE9020103F0D9F8CDE91C
:102730000401FEF792F88346BBFBF9F08244B91915
:1027400008B2434652460096079900F097F808F100
:10275000010101FB067108B233462E220799FFF7EB
:1027600069FF08F1020101FB067108B200965A46A2
:10277000159B079900F082F80AB0BDE8F09F0000B1
:102780002DE9FF4F80460E469146DDF834B0002516
:1027900000244A4631464046039BFFF7BFFC00BF7A
:1027A0005EE0002558E008EB0500002852DB08EB4E
:1027B00005007F284EDC3046F11706EB5171C91039
:1027C0000FB2F11706EB5171C910A6EBC10A002E2A
:1027D00005DA781E07B20AF108000FFA80FA3819F4
:1027E000002817DB3819072814DC3819224901EBB7
:1027F000C01008EB0501405C04FB09511BF80110F7
:1028000001FA0AF1084339191B4A02EBC11108EB1E
:10281000050288543819401C00281BDB3819401C5D
:10282000072817DC3819401C134901EBC01008EBCE
:102830000501405C04FB09511BF80110CAF10802B4
:10284000114108433919491C0B4A02EBC11108EB2D
:1028500005028854681CC5B24D45A4DB601CC4B297
:102860000399481EC11700EB5171012202EBE101EF
:10287000A14296DCBDE8FF8F9C0100202DE9F047C6
:102880000646894617461D46DDF82080002417E0DD
:10289000281B411E0A20FFF768FEB7FBF0F00A2153
:1028A000B0FBF1F201FB120000F1300A04FB0861F9
:1028B00008B2434652464946FFF7BCFE601CC4B20C
:1028C000AC42E5DBBDE8F0872DE9FE4F07468A46BE
:1028D000144698460025AB460026CBE0605D00F02C
:1028E000800058B94FF0010B2846691C8DB2205C5E
:1028F0008DF8040000208DF805006BE0605D00F0AD
:10290000E000C02814D14FF0020B2846691C8DB29C
:10291000205C8DF80400605D00B9AFE02846691CBA
:102920008DB2205C8DF8050000208DF8060051E086
:10293000605D00F0F000E0281DD14FF0030B284649
:10294000691C8DB2205C8DF80400605D00B995E0D3
:102950002846691C8DB2205C8DF80500605D00B9C9
:102960008CE02846691C8DB2205C8DF806000020A2
:102970008DF807002EE0605D00F0F800F02826D109
:102980004FF0040B2846691C8DB2205C8DF80400C2
:10299000605D00B972E02846691C8DB2205C8DF83C
:1029A0000500605D00B969E02846691C8DB2205CB5
:1029B0008DF80600605D00B960E02846691C8DB2A4
:1029C000205C8DF8070000208DF8080002E0681CEC
:1029D00085B24FE0BBF1010F0BD19DF80420B9196E
:1029E00008B243465146FFF725FE06EB080086B2C3
:1029F0003FE04FF000090EE009EB890101EB4911BE
:102A0000204A881801A9FDF7A6FB00B90EE009F1DC
:102A100001001FFA80F909EB890101EB4911194AFC
:102A2000881819A1FDF797FB0028E5D100BFB8F180
:102A3000080F12D109EB890000EB49101149084435
:102A4000401DB919009008B210231A465146FFF7ED
:102A500097FE06F1100086B20BE0B8F1060F08D120
:102A6000B91908B206233F225146FFF7E3FDB01D16
:102A700086B200BF605D00287FF430AF00BFBDE8C4
:102A8000FE8F0000DE6C00080000000010B500247E
:102A90000BE000212046FFF7BBFD054901EBC41008
:102AA000802100F02BF8601CC4B2082CF1DB10BDB3
:102AB0009C01002010B50446224640210148FEF743
:102AC000C3FD10BD000C014010B504462246802114
:102AD0000148FEF7B9FD10BD000C014010B50446D9
:102AE000FFF7DDFC7820FFF7BBFC0020FFF7B8FC08
:102AF0002046FFF7B5FCFFF7E0FC10BD70B50546BA
:102B00000E46FFF7CCFC7820FFF7AAFC4020FFF729
:102B1000A7FC002404E0285DFFF7A2FC601CC4B2FF
:102B2000B442F8DBFFF7C9FC70BD00000A4800683A
:102B300040F00400084908600846006840F00200C0
:102B400008600648006840F004000449086000BFBF
:102B500000BF30BF704700000070004010ED00E083
:102B60000149086070470000A0000E427047000055
:102B700029B1064AD2690243044BDA6104E0034AF0
:102B8000D2698243014BDA617047000000100240B5
:102B900029B1064A12690243044B1A6104E0034A50
:102BA00012698243014B1A61704700000010024015
:102BB00029B1064A92690243044B9A6104E0034A30
:102BC00092698243014B9A617047000000100240F5
:102BD00029B1064AD2680243044BDA6004E0034A92
:102BE000D2688243014BDA60704700000010024057
:102BF00030B500210022002400232D4D6D6805F022
:102C00000C0121B1042905D0082923D105E0294D63
:102C1000056022E0274D05601FE0254D6D6805F435
:102C20007012234D6D6805F48034022505EB924245
:102C30001CB9214D554305600BE01D4D6D6805F431
:102C400000351DB11C4D5543056002E0194D55433B
:102C5000056002E0174D056000BF00BF144D6D68B0
:102C600005F0F0010909154D6B5C0568DD40456014
:102C70000F4D6D6805F4E061090A104D6B5C456805
:102C8000DD4085600A4D6D6805F46051C90A0B4D41
:102C90006B5C4568DD40C560054D6D6805F44041DD
:102CA000890B074D6B5CC568B5FBF3F5056130BD5D
:102CB0000010024000127A0000093D0000000020D0
:102CC000100000207047000010B500222EE03628CA
:102CD00006D039280BD03C2810D03F281CD114E056
:102CE000144B1B7843F00103124C23701BE0114B73
:102CF0001B7843F002030F4C237014E00D4B1B783C
:102D000043F008030B4C23700DE00A4B1B7843F093
:102D10000403084C237006E0064B1B7843F0800345
:102D2000044C237000BF00BF401C521C8A42CED30B
:102D300010BD00007800002070B5384800780028E9
:102D40006AD000243AE004F13401354A32F9110026
:102D5000FDF730FD06464FF08E41FDF765FB054659
:102D60004FF08341FDF72EFB2E4941F8240004F17A
:102D700037012B4A32F91100FDF71CFD06464FF0D2
:102D80008E41FDF751FB05462749FDF71BFB2749FF
:102D900041F8240004F13D01214A32F91100FDF708
:102DA00009FD06464FF08E41FDF73EFB05462049E2
:102DB000FDF708FB1F4941F82400641C032CC2DB0B
:102DC0001648007800F0010028B11448007820F07F
:102DD0000100124908701148007800F0020028B183
:102DE0000E48007820F002000C4908700B4800786B
:102DF00000F0040028B10948007820F004000749D9
:102E000008700648007800F0080028B103480078F0
:102E100020F008000149087070BD00007800002013
:102E200000070020200800200000FA442C080020A1
:102E3000000034433808002070B504460D4629468A
:102E4000204601F061F870BD30B587B0012002F076
:102E5000C5FC7BE004A8FEF7FDFBFFF76DFF082330
:102E60003BA200210846FFF72FFD10237F221946C1
:102E70000020FFF79BF9062338A214210020FFF75A
:102E800023FD0498FDF702FD04460B4606200121B0
:102E90000322CDE900210290224614211220FFF7DF
:102EA00005FC06232EA214213020FFF70DFD06237A
:102EB0002CA21E210020FFF707FD0598FDF7E6FC78
:102EC00004460B46062001210322CDE90021029091
:102ED00022461E211220FFF7E9FB062320A21E2115
:102EE0003020FFF7F1FC06231FA228210020FFF766
:102EF000EBFC0698FDF7CAFC04460B4606200121B0
:102F00000322CDE900210290224628211220FFF75A
:102F1000CDFB062312A228213020FFF7D5FC062383
:102F200012A237210020FFF7CFFC062312A23F2177
:102F30000020FFF7C9FCFFF7A9FD6420FEF7B6FAF1
:102F4000072002F04BFC08B107B030BD82E700005B
:102F500053656E736F72204461746100583A0000CB
:102F600064656700593A00005A3A00005072657370
:102F700073204F4B2032000072657475726E000032
:102F800008B501211020FFF713FE0E20ADF8000058
:102F900048208DF8030003208DF80200694604489C
:102FA000FEF7BAFA0E210248FEF74CFB08BD0000FE
:102FB0000010014000B587B001218803FFF7F8FD3C
:102FC00001210420FFF7F4FD18208DF81B004FF4B9
:102FD0000070ADF8180003208DF81A0006A92148EA
:102FE000FEF79AFA48208DF81B004FF48060ADF888
:102FF000180003208DF81A0006A91A48FEF78CFA6B
:103000004FF4E13002900020ADF814000C20ADF830
:1030100012000020ADF81000ADF80E00ADF80C0065
:1030200002A9114800F0FAFE012240F225510E4893
:1030300000F0CEFE4FF4A060FFF752F825208DF887
:10304000040001208DF807008DF805008DF80600BA
:1030500001A8FFF70DF80121034800F076FE07B044
:1030600000BD0000000801400038014010B50446D2
:103070002146054800F043FF00BF8021024800F0D0
:1030800070FE0028F9D010BD0038014010B500F0E6
:1030900001F810BD0CB50020019000903348006885
:1030A00040F480303149086000BF3048006800F4C7
:1030B000003000900198401C0190009818B90198C8
:1030C000B0F5A06FF1D12948006800F4003010B1CC
:1030D0000120009001E0002000900098012843D1D9
:1030E0002348006840F01000214908600846006845
:1030F00020F0030008600846006840F00200086005
:103100001A484068194948600846406848600846BF
:10311000406840F4806048600846406820F47C10B5
:1031200048600846406840F4E81048600846006877
:1031300040F08070086000BF0C48006800F000702C
:103140000028F9D00948406820F00300074948608A
:103150000846406840F00200486000BF03484068ED
:1031600000F00C000828F9D10CBD0000001002404E
:10317000002002401FB504466020ADF80000012089
:10318000ADF80200601E80B2ADF806000020ADF878
:1031900008006946034800F0F7FA0821014800F0EA
:1031A0003FFB1FBD000C00401FB504466020ADF87A
:1031B00000000120ADF80200601E80B2ADF80600EC
:1031C0000020ADF808006946034800F033FB0821F1
:1031D000014800F081FB1FBD000C0040704700005B
:1031E00010B51348006840F0010011490860084616
:1031F0004068104908400E494860084600680E497A
:1032000008400B4908600846006820F480200860E8
:103210000846406820F4FE0048604FF41F008860B4
:10322000FFF734FF4FF000600449086010BD000054
:10323000001002400000FFF8FFFFF6FE08ED00E07E
:1032400010B50121880700F07FFA012808D1054850
:103250000078401C034908700121880700F071F9CB
:1032600010BD00001400002010B501211D4800F021
:103270006BFAB0B301211B4800F063F91A480088CB
:10328000401C1949088008460088B0F5616F01D1DB
:103290000020088014480088B0F5FA7F07D140214B
:1032A0001248FEF7CFF902211148FEF7CBF9114879
:1032B0000078400000F24E200B490988884203D173
:1032C00040210A48FEF7BCF90A484078400000F265
:1032D0004E2005490988884203D102210448FEF79F
:1032E000AFF910BD000400401201002000080140A9
:1032F000000C01408D0000201FB501210220FFF7C6
:1033000037FC194800F02CF940F28F10ADF8080096
:103310000020ADF80400ADF80A00ADF8060001A9E0
:10332000114800F0E9FA01210F4800F007F90122E5
:1033300011460D4800F019FA01210B4800F004F97C
:103340004FF4C060FEF7CCFE1D208DF80000002079
:103350008DF8010002208DF8020001208DF8030095
:103360006846FEF785FE1FBD0004004008B5012138
:103370000820FFF71DFC0320ADF800008DF80200C7
:1033800010208DF8030069460A48FEF7C5F80121B0
:103390000420FFF70DFCFC20ADF8000003208DF8A1
:1033A000020010208DF8030069460348FEF7B4F8C8
:1033B00008BD0000000C01400008014010B50121CB
:1033C000064800F0C1F940B10121044800F0B9F805
:1033D00003480068401C0249086010BD0008004016
:1033E000A00000201FB501210420FFF7C1FB1C48ED
:1033F00000F0B6F841F28830ADF808000020ADF8D2
:103400000400ADF80A00ADF8060001A9144800F068
:1034100073FA012240F2CF21114800F06AFA00212C
:103420000F4800F07FF8012211460D4800F09DF989
:1034300000210B4800F088F84FF4C060FEF750FE02
:103440001E208DF8000001208DF8010003208DF86A
:10345000020001208DF803006846FEF709FE1FBD3B
:103460000008004008B501210820FFF781FB012179
:103470000420FFF79DFB0320ADF8000018208DF815
:10348000030003208DF8020069460248FEF744F865
:1034900008BD00000008014000B587B040F2E730E9
:1034A000ADF814004720ADF810000020ADF816006C
:1034B000ADF8120004A9184800F01EFA6020ADF81B
:1034C00000000120ADF8020014480088401E80B2C0
:1034D000ADF806000020ADF8080069460E4800F07F
:1034E00053F908210C4800F09BF90120ADF80200C7
:1034F0000B480088401E80B2ADF8060069460648B9
:1035000000F098F90821044800F0E6F9012102488A
:1035100000F01AF807B000BD000C0040A800002021
:10352000AA00002021B1028842F08002028004E05B
:1035300002884FF67F731A4002807047CA430282A6
:103540007047CA430282704721B1028842F00102EB
:10355000028004E002884FF6FE731A400280704732
:1035600010B504466848844208D10121C014FFF711
:103570002FFB0021E014FFF72BFBC4E0B4F1804FD8
:1035800008D101210846FFF703FB00210120FFF7C6
:10359000FFFAB8E05D48844208D101210220FFF71C
:1035A000F7FA00210220FFF7F3FAACE05848844212
:1035B00008D101210420FFF7EBFA00210420FFF7D6
:1035C000E7FAA0E05348844208D101210820FFF720
:1035D000DFFA00210820FFF7DBFA94E04E4884422E
:1035E00008D101211020FFF7D3FA00211020FFF7A6
:1035F000CFFA88E04948844208D101212020FFF712
:10360000C7FA00212020FFF7C3FA7CE04448844237
:1036100008D101214014FFF7DBFA00216014FFF705
:10362000D7FA70E03F48844209D10121C804FFF76E
:10363000CFFA00214FF40020FFF7CAFA63E03A48BE
:10364000844209D101210805FFF7C2FA00214FF495
:103650008010FFF7BDFA56E03448844209D10121B9
:103660004805FFF7B5FA00214FF40010FFF7B0FA54
:1036700049E02F48844208D101214020FFF788FA11
:1036800000214020FFF784FA3DE02A48844208D117
:1036900001218020FFF77CFA00218020FFF778FAD3
:1036A00031E02548844208D101218015FFF770FAE6
:1036B0000021A015FFF76CFA25E02048844209D1CB
:1036C00001210804FFF784FA00214FF48030FFF74E
:1036D0007FFA18E01A48844209D101214804FFF713
:1036E00077FA00214FF40030FFF772FA0BE015482B
:1036F000844208D101218804FFF76AFA00214FF4BF
:103700008020FFF765FA10BD002C01400004004046
:1037100000080040000C0040001000400014004071
:1037200000340140004C0140005001400054014071
:1037300000180040001C00400020004000400140F4
:10374000004401400048014030B5024600200023FB
:103750000024158A05EA0103958905EA010413B1DD
:103760000CB1012000E0002030BD1AB183890B4369
:10377000838102E083898B438381704701894FF6FF
:10378000F87211400181704770B5002400220023B7
:10379000058C4FF6FE7635400584028C8388048BB9
:1037A0004FF68F752C40B51E2C400D882C43751E8E
:1037B0002A400D892A434D882A43144DA8420BD034
:1037C000134DA84208D0134DA84205D0124DA8426F
:1037D00002D0124DA84213D14FF6F7752A404D89F9
:1037E0002A434FF6FB752A408D882A434FF6FF6522
:1037F0002B404FF6FF552B408D892B43CD892B4312
:1038000083800483CD888586028470BD002C0140AE
:1038100000340140004001400044014000480140A4
:103820000A460021018B4FF6F773194011430183BB
:103830007047000070B5002400220023058C4FF66D
:10384000EF7635400584028C8388048B48F6FF753B
:103850002C404FF6FF452C400D884FF6FF7606EAC8
:1038600005252C434FF6DF752A400D8906EA05151C
:103870002A434D8806EA05152A43154DA84202D071
:10388000144DA8421DD14FF67F752A404D894FF641
:10389000FF7606EA05152A434FF6BF752A408D8844
:1038A00006EA05152A434FF6FF352B404FF2FF7508
:1038B0002B408D8906EA85052B43CD8906EA8505CF
:1038C0002B4383800483CD880587028470BD00006C
:1038D000002C0140003401400A460021018B4FF2C8
:1038E000FF7319404FF6FF7303EA02231943018364
:1038F0007047018582827047002202881D4B9842E2
:103900000ED01D4B98420BD0B0F1804F08D01B4B0E
:10391000984205D01A4B984202D01A4B984204D1D3
:103920004FF68F731A404B881A43174B984207D0B3
:10393000164B984204D04FF6FF431A40CB881A43E7
:1039400002808B8883850B8803850A4B98420BD0B5
:10395000094B984208D00E4B984205D00D4B984227
:1039600002D00D4B984201D10B7A0386012383824A
:1039700070470000002C014000340140000400406A
:1039800000080040000C00400010004000140040FF
:103990000040014000440140004801401FB50121A2
:1039A0000846FFF7E5F84FF08040FFF7E7FE0020FC
:1039B000ADF80A00ADF8060042F20F70ADF808004D
:1039C00041F61F40ADF8040000208DF80C0001A95D
:1039D0004FF08040FFF790FF01218807FFF7AEFD11
:1039E000012211469007FFF7C0FE4FF4A060FEF7DA
:1039F00077FB1C208DF8000001208DF803000220C9
:103A00008DF8010001208DF802006846FEF730FBBA
:103A100001218807FFF798FD1FBD000010B54FF486
:103A200000518D48FDF703FEC0BB4FF480418A482A
:103A3000FDF7FDFD012832D14FF49670FFF79AFB98
:103A40007820FFF7B1FB40218348FDF7FBFD802183
:103A50008148FDF7F5FD4FF480717F48FDF7F2FDD9
:103A60004FF400717C48FDF7EBFDC820FDF71EFD0B
:103A700040217948FDF7E4FD80217748FDF7E0FD1E
:103A80004FF480717448FDF7DBFD4FF4007172480C
:103A9000FDF7D6FD3220FDF709FD10BDFFE74FF41D
:103AA00000516D48FDF7C3FD012837D181036A48F5
:103AB000FDF7BDFD88BB7820FFF75CFB4FF49670E7
:103AC000FFF772FB40216448FDF7BCFD802162488E
:103AD000FDF7B6FD4FF480715F48FDF7B3FD4FF47D
:103AE00000715D48FDF7ACFDC820FDF7DFFC40210B
:103AF0005948FDF7A5FD80215748FDF7A1FD4FF47A
:103B000080715548FDF79CFD4FF400715248FDF758
:103B100097FD3220FDF7CAFCBFE7FFE74FF40051E5
:103B20004D48FDF784FD08BB4FF480414A48FDF73E
:103B30007EFDD8B9C820FFF71DFBC820FFF734FB76
:103B400040214548FDF77EFD80214348FDF778FD83
:103B50004FF480714048FDF775FD4FF400713E4809
:103B6000FDF76EFD3220FDF7A1FC96E74FF4005102
:103B70003948FDF75CFD01286BD181033648FDF71C
:103B800056FD012865D1C820FFF7F4FAC820FFF7D9
:103B90000BFB40213048FDF753FD80212E48FDF7F7
:103BA0004FFD4FF480712C48FDF74AFD4FF4007132
:103BB0002948FDF745FD2D20284908703220FDF7E2
:103BC00075FCB4202549087040212348FDF738FDD5
:103BD00080212148FDF736FD4FF480711E48FDF726
:103BE0002FFD4FF400711C48FDF72CFD7820FFF7E6
:103BF000C1FA4FF49670FFF7D7FA40211648FDF747
:103C000021FD80211448FDF71BFD4FF480711248FF
:103C1000FDF718FD4FF400710F48FDF711FD4FF44B
:103C2000FA70FDF743FC40210B48FDF709FD8021A8
:103C30000948FDF705FD4FF480710748FDF700FDC9
:103C40004FF400710448FDF7FBFC3220FDF72EFC19
:103C500023E700BF21E70000001001408D00002095
:103C600010B540F22551214800F088F801283CD1D8
:103C70001E4800F03FF9C4B21D48007858B9402CE6
:103C80002DD11C48007850BB012019490870002034
:103C90001949087023E01648007801280FD1232C19
:103CA00003D102201249087019E01448124909781A
:103CB000445411480078401C0F4908700FE00C482C
:103CC000007802280BD1232C09D100200849087064
:103CD0000A49094A1278885401200649087040F2BE
:103CE0002551024800F022F800BF10BD0038014005
:103CF0004D0000204C0000204E0000209C050020BC
:103D000010B540F22551084800F038F858B106487F
:103D100000F0F0F8C4B2204600F0CCFA40F2255191
:103D2000014800F003F810BD0048004010B5002223
:103D3000002340F66A14A14200D100BF0A120124F8
:103D40009440A3B2DC43048010BD21B1828942F4C7
:103D50000052828104E082894DF6FF731A4082810D
:103D6000704702460020B1F5007F00D100BF1388E4
:103D70000B400BB1012000E00020704770B50246F7
:103D8000002400230025002040F66A16B14200D12D
:103D900000BFC1F3421501F01F03012606FA03F329
:103DA000012D02D19689334006E0022D02D1168AF8
:103DB000334001E0968A33400C12012606FA04F4DF
:103DC0001688344013B10CB1012000E0002070BD12
:103DD000F0B50346002400260025002040F66A17AF
:103DE000B94200D100BF1846C1F3421401F01F06CA
:103DF000012707FA06F5012C01D10C3004E0022C52
:103E000001D1103000E014301AB107682F43076069
:103E100002E00768AF430760F0BD00002DE9F047FE
:103E200086B005460E460024A24600BFA1460027E4
:103E3000B08900B100BF2F462C8A4CF6FF700440B9
:103E4000F08804432C82AC894EF6F3100440B0880D
:103E500031890843718908430443AC81AC8A4FF629
:103E6000FF400440B0890443AC8201A8FEF7C0FEC5
:103E70001F48874202D1DDF810A001E0DDF80CA058
:103E8000A88900F4004040B10AEBCA0000EB0A1018
:103E900031684900B0FBF1F807E00AEBCA0000EB1B
:103EA0000A1031688900B0FBF1F86420B8FBF0F02B
:103EB00004012009642101FB1089A88900F4004055
:103EC00040B1322000EBC900B0FBF1F000F0070078
:103ED000044308E0322000EB09106421B0FBF1F04C
:103EE00000F00F0004432C8106B0BDE8F08700000D
:103EF0000038014001468888C0F308007047C1F3CC
:103F0000080282807047000070B504460D46002606
:103F10000CE000BF80210A48FFF723FF0028F9D0FA
:103F200014F8011B0648FFF7EAFF761CAE42F0D3F7
:103F300000BF40210248FFF714FF0028F9D070BDF0
:103F40000048004010B5FFF74DFA00F073F810BDBF
:103F500000BFFEE710B586B0044601210820FEF739
:103F600027FE01218804FEF703FE4FF48060ADF8C0
:103F7000140018208DF8170003208DF8160005A9ED
:103F80001C48FDF7C9FA4FF40060ADF81400042096
:103F90008DF8170005A91748FDF7BEFA0194002017
:103FA000ADF80800ADF80A00ADF80C00ADF810004F
:103FB0000C20ADF80E0001A90F48FFF72FFF0122DA
:103FC00040F225510C48FFF703FF01210A48FFF793
:103FD000BCFE27208DF8000001208DF8010008208C
:103FE0008DF8020001208DF803006846FEF740F8C6
:103FF00006B010BD000C01400048004010B54FF461
:104000001650FFF7A7FF5021002000F045F80648A2
:1040100000F046FA054800F041F9054800F030F894
:10402000FDF736F810BD0000392E0008C92C000835
:104030000D15000808B501211020FEF7B9FD20205C
:10404000ADF8000004208DF8030069460B48FDF729
:1040500063FA1020ADF800008DF8030003208DF8FE
:10406000020069460548FDF757FA10210348FDF79D
:10407000E7FA20210148FDF7E3FA08BD00100140EE
:10408000014611B96FF00500704702480160002039
:10409000FAE70000640000200246062A02D96FF009
:1040A0000500704704480260044801700020044B7A
:1040B000186000BFF5E700007000002068000020D5
:1040C0006C0000202DE9FC4104460D466019902843
:1040D00003D36FF00500BDE8FC816748006807283E
:1040E0007ED2DFE800F007285E8204275D006FF0D3
:1040F0000500F0E7042D02D96FF00500EBE75F48FB
:10410000006810B96FF00400E5E7FF208DF80000AB
:10411000AA208DF8010027208DF80200E0B28DF86A
:104120000300200A8DF8040005216846534A1268EE
:1041300090479CE000BF5148006810B96FF0040040
:10414000C9E74FF6FF7000EA4506701DB0F5807FA5
:1041500002DD6FF00300BEE7494800788DF80000EB
:1041600003208DF80100200A8DF80200E0B28DF8DE
:104170000300280A8DF80400E8B28DF80500062136
:10418000684600F0BDF9064630128DF80600F0B220
:104190008DF8070008216846384A1268904766E0A3
:1041A00000BF032D02D96FF0050094E73548006881
:1041B00010B96FF004008EE7FF208DF80000AA20F0
:1041C0008DF8010027208DF80200E0B28DF8030081
:1041D000200A8DF80400052269462948007800E08D
:1041E00042E0284B1B68984741E02748006810B917
:1041F0006FF004006FE74FF6FF7000EA4506B6F572
:10420000807F02DD6FF0030065E7E1B21C4A12789F
:104210005206100E33461D4ADFF86CC0DCF800C0B1
:10422000E04701281FD11A48006810B96FF0040058
:1042300051E7002710E0154810F81700012101EBA5
:104240004701124A515C40EA012000B23919114A73
:1042500022F81100781C87B2AF42ECD329462046E1
:104260000B4A1268904702E06FF0050033E700BF89
:104270000948046000202EE7700000205000002054
:10428000680000205C00002058000020000600208C
:10429000600000200007002074000020014611B9D2
:1042A0006FF005007047024801600020FAE7000047
:1042B000600000202DE9FC4180467348006808B981
:1042C000BDE8FC81714801680068401C6F4A1060BD
:1042D0006F4800F801806F48006807285AD2DFE86D
:1042E00000F0055BC2C3045AC10000BF68480078F3
:1042F00055280CD065480068401E6449086008468F
:104300006349491C0268481EFBF70CFFD8E75F4869
:1043100000680B283ED30A215D4800F00DF90746DE
:104320005B48807AB8420CD058480068401E574914
:10433000086008465649491C0268481EFBF7F2FE11
:10434000BEE7534880785249C97840EA0120ADF869
:1043500000004F4800794E49497940EA0120ADF804
:1043600002004B4880794A49C97940EA0120ADF8FA
:1043700004004748007A4649497A40EA0120ADF8EE
:1043800006004349487804226946FCF7BDFE002038
:104390003E4908606CE000BF3C480068022860D9D4
:1043A0003B48407803280CD038480068401E374905
:1043B000086008463649491C0268481EFBF7B2FEF1
:1043C0007EE733488078401D30490968884200D92B
:1043D00076E72E480068401E2D49095C2B4800688E
:1043E000801E2B4A105C41EA002528480088801E68
:1043F00081B2104600F084F80646B5420CD023483E
:104400000068401E2149086008462149491C02688D
:10441000481EFBF787FE53E71D48807845100024AF
:1044200014E0042000EB44001949085C032101EB6F
:104430004401174A515C40EA012000B2164909685C
:104440002144164A22F81100601C84B2AC42E8DB19
:104450002946114800680C4A1268904700200B4911
:10446000086005E000BF00BF00200849086000BFE9
:1044700000BF06480068B0F5807F02D100200349E4
:10448000086000BF1CE70000600000206C000020F6
:1044900000060020700000207400002000070020AB
:1044A000014611B96FF00500704702480160002015
:1044B000FAE70000500000200FB4054B10B503A927
:1044C000044A029800F016F910BC5DF814FB0000D5
:1044D0002D4E0008980100200FB4084B10B504A918
:1044E00002AA039800F006F9044602A9002000F091
:1044F00098FC204610BC5DF814FB0000234E000819
:1045000070B503460C46FF25FF26002200BF00BF02
:1045100009E0985C80EA05010548405C80EA0605F0
:104520000448465C521CA242F3DB46EA052070BDFB
:10453000016E0008016F000810B502460B4600200E
:10454000002103E0545C0444E0B2491C9942F9D3D1
:1045500010BD02E008C8121F08C1002AFAD1704736
:104560007047002001E001C1121F002AFBD17047F3
:104570002DE9FF5F82B00021DDE90430020DDDF896
:1045800040B0034318D044F61050A2F2FF32424329
:104590001514119801281FD0A5EB0B00401C5FEAF1
:1045A000000A4FF000064E4FDFF83891B0465046F3
:1045B00015D5CAF1000413E0119801244AA301287B
:1045C00001D16FEA0B010298119AC0E90031C0E9EC
:1045D000024206B0BDE8F09FCBF10000DFE70446E1
:1045E0000021404A491842EB0450CDE9001012E086
:1045F000E00707D032463B4640464946FBF7F9FF05
:104600008046894632463B4610461946FBF7F1FF85
:1046100006460F466410002CEAD1DDE90401DDE90D
:104620000023BAF1000F06DAFBF7E3FF42464B46E0
:10463000FBF7DFFF05E0FCF74EF842464B46FCF780
:104640004AF804460E460022284BFCF74BF903D8E3
:104650004FF0FF30014607E00022254B204631464F
:10466000FBF720FFFCF70EFB102409E0002C0ADB0F
:104670000A220023FCF78AF9039B30321A55641E84
:1046800050EA0102F2D1641C039AC4F111031444EC
:10469000119A012A03D0012208430DD10AE00843F0
:1046A00004D000204FF0110B119072E7A3EB0B0523
:1046B0006D1E0DE05B4504DD4FF0000205F10105C4
:1046C00004E003DA4FF00002A5F10105002AECD066
:1046D00002981199C0E90231C0E9004579E700006C
:1046E000000014400000F03F300000000000F043E4
:1046F0000000E03F2DE9FF4F95B09B4689460646F6
:1047000000250FE2252877D100242746F84A012109
:10471000059400E0044316F8013F203B01FA03F042
:104720001042F7D130782A2811D06FF02F0330785B
:10473000A0F13002092A16D8059A44F0020402EBCF
:10474000820203EB42021044761C0590EFE759F811
:10475000042B0592002A03DA504244F400540590D9
:1047600044F00204761C30782E2816D116F8010F7A
:1047700044F004042A280DD06FF02F023078A0F105
:104780003003092B09D807EB870302EB4303C71853
:10479000761CF3E759F8047B761C30786C280FD030
:1047A00006DC4C2817D068280DD06A2814D104E004
:1047B000742810D07A280FD10DE044F400140AE0D8
:1047C00044F4801401E044F440147278824202D12F
:1047D00004F58014761C761C307866280BD013DC28
:1047E000582877D009DC002875D04528F6D046280F
:1047F000F4D047281AD19DE118E0632835D0642809
:1048000079D0652812D195E1702873D008DC67282B
:10481000F1D069286FD06E280DD06F2806D1B5E091
:1048200073282CD0752875D0782874D05A461799DB
:1048300090476D1C75E1C4F30250022809D003288B
:104840000DD0D9F8001004280DD00D6009F104092D
:1048500067E1D9F80010EA17C1E90052F6E7D9F884
:1048600000100D80F2E70D70F0E719F8041B8DF8C9
:10487000001000208DF80100EA46012003E059F8FD
:1048800004AB4FF0FF3061074FF0000102D40DE0A0
:1048900008F101018846B9420FDA8045F8DB1AF8C1
:1048A00008100029F4D108E008F10101884681428E
:1048B000FADB1AF808100029F6D105985B46A0EB40
:1048C000080721463846179A00F094FA284400EB6E
:1048D000080507E04DE029E10DE01AF8010B5A4602
:1048E00017999047B8F10108F7D25B462146384640
:1048F000179A13E142E00A220092C4F302524FF0E9
:10490000000A022A08D059F804CB032A4FEAEC71B6
:104910000AD00DE029E02AE009F1070121F00702A1
:10492000F2E802C1914609E00FFA8CFC4FEAEC7103
:10493000042A03D14FFA8CFC4FEAEC71002907DA04
:104940000A460021DCF1000C61EB02012D2202E09D
:10495000220504D52B228DF80420012203E0E20772
:1049600001D02022F7E7904659E00A2102E0102208
:104970000DE010214FF0000A00910BE010224FF0E3
:10498000000A44F004040827009203E008224FF0D4
:10499000000A0092C4F30252022A05D059F804CB4F
:1049A0000021032A08D009E009F1070121F00702DC
:1049B000F2E802C1914605E01FFA8CFC042A01D1FD
:1049C0000CF0FF0C4FF00008220728D5702806D005
:1049D000009B83F0100353EA0A0305D00EE0402247
:1049E0008DF80420012208E05CEA010206D03022A2
:1049F0008DF804208DF8050002229046009B83F07C
:104A0000080353EA0A030AD15CEA010201D16207F2
:104A100005D530228DF804204FF001087F1E58285C
:104A200004D034A003900EA802900DE036A0F9E760
:104A300053466046009AFBF7A9FF84460398825CC0
:104A40000298401E029002705CEA0100F0D10298C8
:104A500006A9081A00F1200A600702D524F4803460
:104A600000E00127574502DDA7EB0A0000E0002027
:104A700000EB0A01009005984144401A0590E003BC
:104A800006D45B462146179A059800F0B3F9054411
:104A9000002706E001A85A46C05D179990476D1C93
:104AA0007F1C4745F6DBE0030CD55B462146179A91
:104AB000059800F09FF9054404E030205A46179904
:104AC00090476D1C0099481E00900029F5DC08E015
:104AD000029802995A460078491C0291179990470A
:104AE0006D1CBAF10001AAF1010AF1DC65E10000D8
:104AF00009280100303132333435363738396162B4
:104B00006364656600000000303132333435363777
:104B100038394142434445460000000000F058F94E
:104B20000544761C307800287FF4ECAD19B0284697
:104B3000BDE8F08F620700D4062709F1070222F0D2
:104B4000070CFCE80223E14603F000485FEA080C8A
:104B500002D00FF2702C0DE05FEA045C02D50FF278
:104B6000682C07E05FEAC47C02D00FF2602C01E001
:104B7000AFF2700C4FF0FF3823F00043CDF850C077
:104B800065280CD006DC452809D046281DD04728CA
:104B90003DD13DE0662818D067287ED138E000215D
:104BA000112F01DB112000E0781CCDE9000106A9DE
:104BB0000EA8FFF7DDFCDDE90F010E9A039100213D
:104BC000009207F1010A04914DE04FF00040009778
:104BD000CDE9011006A90EA8FFF7CAFCDDE90F0216
:104BE00003920E9B11990022DDF80CA00093049211
:104BF00011B9791C00EB010AB7EB0A0004D4C0F12B
:104C0000FF3007F1010A0490AAEB0700019044E08D
:104C1000012F00DA01270021112F01DD112000E012
:104C20003846CDE9000106A90EA8FFF7A1FCDDE991
:104C30000F010E9A0391002104910092BA462107B8
:104C40000CD40399514500DA8A46BAF1010F05DD0B
:104C5000009AAAF10101515C302908D0B84202DA69
:104C600010F1040F06DA0121CDE9011015E0AAF1D7
:104C70000101E9E7002805DC049901440491AAEB4D
:104C8000000102E0411C514500DD8A460499401AAA
:104C9000401C01904FF000400290200704D401987E
:104CA000504501DBCDF8048000208DF84F000298BC
:104CB0000DF14F07B0F1004F25D02B200E90029838
:104CC0004FF0020800280CDA404202902D200E908E
:104CD00007E00A210298FBF743FE3031029007F803
:104CE000011DB8F10001A8F10108F2DC02980028CA
:104CF000EFD1791E0E980870307800F0200040F057
:104D0000450007F8020D12A8C01B00F1070814980F
:104D1000007800B1012000EB0A01019801EBE0717D
:104D200005984144401A401E0590E00306D45B46B6
:104D30002146179A059800F05DF80544149800780C
:104D400018B15A46179990476D1CE00324D55B466D
:104D50002146179A059800F04DF805441CE0049888
:104D6000002807DBDDE90301884203DD0098405C91
:104D7000179901E0179930205A469047049805F199
:104D80000105401C04900198401E019004D12E2082
:104D90005A46179990476D1CBAF10001AAF1010A11
:104DA000DDDC05E017F8010B5A46179990476D1C9A
:104DB000B8F10001A8F10108F4DC5B462146179A1E
:104DC0000598ABE62D0000002B000000200000003D
:104DD0002DE9F041044600251E461746880404D4F8
:104DE00005E039462020B0476D1C641EF9D52846E1
:104DF000BDE8F0812DE9F041044600251E469046AD
:104E0000C80301D5302700E02027880404D505E039
:104E100041463846B0476D1C641EF9D52846BDE8AA
:104E2000F0810A68531C0B601070704770B504461F
:104E30000D46E0B2FEF71AF9204670BD2DE9F04F9D
:104E400089B0FEF7ABFDFEF7CBF9FDF741FBFCF7B0
:104E500033FCFFF7D3F8FCF79DFAFDF7FFF8FFF7F7
:104E600071F8FEF78DF8FCF747F9FEF7A3F84FF459
:104E70001650FFF76FF87820FEF77CF97820FEF7E0
:104E800093F90623FAA232210846FDF71DFDFDF72E
:104E9000FDFD5A20F849087082204870FDF72AF974
:104EA0000623F6A200210846FDF70EFD0623F7A211
:104EB0000A210020FDF708FD0623F8A21421002096
:104EC000FDF702FDFDF7E2FD4FF0000A3BE04FF475
:104ED0000071F548FCF7ABFBB0B91420FCF7E6FA1B
:104EE0004FF40071F048FCF7A2FB48BB4FF0010AF9
:104EF00000BF4FF40071EC48FCF799FB0028F8D094
:104F00001420FCF7D3FA1BE04FF48071E648FCF75D
:104F10008EFBA8B91420FCF7C9FA4FF48071E2485F
:104F2000FCF785FB60B94FF0020A00BF4FF48071B7
:104F3000DD48FCF77CFB0028F8D01420FCF7B6FA1B
:104F40000A20FCF7B3FABAF1000FC0D0BAF1010F92
:104F500076D1FDF7CFF80623D4A200210846FDF74D
:104F6000B3FC0623D4A20A210020FDF7ADFC0623E2
:104F7000D5A214210020FDF7A7FC0623D7A21E21ED
:104F80000020FDF7A1FC0623D8A228210020FDF770
:104F90009BFCFDF77BFD4FF0000B00200890079075
:104FA000B7E3D648007801284ED10020D3490870D5
:104FB000D3A1D548FBF7CFF8002846D105A906A80C
:104FC000FCF747FA00283CD19DF814209DF81810F2
:104FD000CEA0FFF771FAFDF78DF80623B3A20021EA
:104FE0000846FDF771FC0623D1A20A210020FDF737
:104FF0006BFC0620022300909DF818200A2128202F
:10500000FDF73CFC0623CCA20A213420FDF75CFC12
:105010000623CAA214210020FDF756FC0620022315
:1050200000909DF8142014212820FDF727FC06236A
:10503000C4A214213420FDF747FCFDF727FD03E04F
:1050400068E3C1A0FFF738FA80E2C7A1AE48FBF7DA
:1050500082F840B94FF0010B002008900790C4A0DF
:10506000FFF72AFA72E2CBA1A748FBF774F80028F1
:105070007BD104A8FCF7EEFAFDF75EFE0698FBF77D
:1050800005FC04460D460598FBF700FC06460F4656
:105090000498FBF7FBFB804642460B46BFA0CDE9D8
:1050A0000067CDE90245FFF707FAFDF723F806236D
:1050B0007EA200210846FDF707FC0623C3A20A21B1
:1050C0000020FDF701FC0498FBF7E0FB04460B46CB
:1050D000062001210322CDE90021029022460A2167
:1050E0001220FDF7E3FA0623B9A20A213020FDF7CA
:1050F000EBFB0623B7A214210020FDF7E5FB059882
:10510000FBF7C4FB04460B46062001210322CDE930
:1051100000210290224614211220FDF7C7FA06232F
:10512000ABA214213020FDF7CFFB0623AAA21E213B
:105130000020FDF7C9FB0698FBF7A8FB04460B46C9
:10514000062001210322CDE90021029022461E21E2
:105150001220FDF7ABFA06239DA21E213020FDF799
:10516000B3FBFDF793FCF1E1FFE79CA16648FAF77A
:10517000F2FF48B94FF0000B012008900020079083
:1051800098A0FFF799F9E1E1A0A15F48FAF7E3FFE2
:1051900060B94FF0000B00200890012007909EA0FE
:1051A000FFF78AF9A4A0FFF787F9CFE10622ABA1A8
:1051B0005548FAF7DEFF002857D10690059005AB59
:1051C00006AAA8A15048FAF7E3FFC4B2022C4DD1B9
:1051D0009DF81800012849DB9DF81800082845DCD7
:1051E0009DF81400002841DB9DF81400B4283DDC34
:1051F0009DF814109DF81800401E1F4A11549DF888
:1052000014209DF818109BA0FFF756F9FCF772FFC9
:10521000062326A200210846FDF756FB06239DA281
:105220000A210020FDF750FB06239EA21421002036
:10523000FDF74AFB0620012300909DF81820142159
:105240002820FDF71BFB062398A21E210020FDF756
:105250003BFB0620032300909DF814201E212820EC
:10526000FDF70CFBFDF712FC2AE12AE122E1000028
:10527000546D703A000000008D0000204D6F646591
:105280002053656C656374696F6E3A004B45593104
:105290003A2053657269616C000000004B45593239
:1052A0003A204D656E750000000C0140536572692F
:1052B000616C204D6F64650057616974696E672089
:1052C000636D642E2E2E0000436F6D6D616E6473EE
:1052D0003A2044485431312C0000000044485431F5
:1052E00031432C2053544F502C00000053454E5353
:1052F0004F522C20534552564F0000004C000020C6
:1053000044485431310000009C05002054656D7004
:10531000657261747572653A20256420432C2048BB
:10532000756D69646974793A20256425250D0A0034
:1053300054656D703A0000004300000048756D69C7
:105340003A000000250000004661696C6564207425
:105350006F20726561642044485431312073656E5A
:10536000736F72210D0A000044485431314300002C
:10537000456E746572696E6720636F6E74696E75D1
:105380006F7573204448543131206D6F64652E2E43
:105390002E0D0A0053454E534F52000053656E7355
:1053A0006F7220583A20252E3166206465672C20C4
:1053B000593A20252E3166206465672C205A3A2000
:1053C000252E3166206465670D0A0000583A0000FA
:1053D00064656700593A00005A3A000053454E533D
:1053E0004F524300456E746572696E6720636F6E3D
:1053F00074696E756F75732053454E534F52206D0F
:105400006F64652E2E2E0D0A000000005452414399
:105410004B4C494E45000000456E746572696E67DD
:1054200020545241434B4C494E45206D6F64652ECC
:105430002E2E0D0A0000000053656E642053544F59
:105440005020746F206578697420545241434B4C4E
:10545000494E45206D6F64650D0A00005345525654
:105460004F2C0000534552564F2C256868752C254B
:105470006868750053657420736572766F202564C3
:1054800020746F20256420646567726565730D0A5A
:1054900000000000536572766F20436F6E74726F68
:1054A0006C000000536572766F3A0000416E676CC5
:1054B000653A00009DA0FEF7FFFFAAA0FEF7FCFFE3
:1054C00044E0AFA1B048FAF746FE00283ED183463B
:1054D000089007904021AD48FCF7B2F88021AB4816
:1054E000FCF7AEF84FF48071A848FCF7A9F84FF428
:1054F0000071A648FCF7A4F8A5A0FEF7DDFFFCF7B5
:10550000F9FD0623AFF25C2200210846FDF7DCF925
:105510000623AFF25C220A210020FDF7D5F906230D
:10552000AFF25C2214210020FDF7CEF90623AFF282
:1055300054221E210020FDF7C7F90623AFF25422A2
:1055400028210020FDF7C0F9FDF7A0FABBF1000FFC
:105550004AD005A906A8FBF77CFF00283FD19DF89B
:1055600014209DF81810AFF25C20FEF7A5FFFCF7A1
:10557000C1FD06238EA200210846FDF7A5F90623EA
:10558000AFF254220A210020FDF79EF906200223E3
:1055900000909DF818200A212820FDF76FF90623B6
:1055A000AFF26C220A213420FDF78EF90623AFF208
:1055B000742214210020FDF787F9062002230090B1
:1055C0009DF8142014212820FDF758F90623AFF286
:1055D0008C2214213420FDF777F9FDF757FA4FF4A8
:1055E000FA60FBF763FF00BF089800287DD004A88D
:1055F000FCF730F8FDF7A0FB0698FBF747F90446E7
:105600000D460598FBF742F906460F460498FBF74E
:105610003DF9804642460B46AFF28020CDE9006757
:10562000CDE90245FEF748FFFCF764FD062365A2BD
:1056300000210846FDF748F90623AFF270220A213F
:105640000020FDF741F90498FBF720F904460B46CA
:10565000062001210322CDE90021029022460A21E1
:105660001220FDF723F80623AFF29C220A213020F6
:10567000FDF72AF90623AFF2A42214210020FDF73A
:1056800023F90598FBF702F904460B460620012191
:105690000322CDE900210290224614211220FDF7B9
:1056A00005F80623AFF2D82214213020FDF70CF9BB
:1056B0000623AFF2DC221E210020FDF705F9069833
:1056C000FBF7E4F804460B46062001210322CDE94E
:1056D0000021029022461E211220FCF7E7FF06233C
:1056E000AFF214321E21302000E008E0FDF7ECF8A4
:1056F000FDF7CCF94FF4FA70FBF7D8FE00BF07981E
:1057000020B1FEF78BF90A20FBF7D0FE3220FBF721
:10571000CDFE46E4BAF1020F04D102E02E48FCF7B8
:1057200093F8FBE7002009B0BDE8F08F496E766181
:105730006C696420534552564F20636F6D6D616EE6
:10574000642E20466F726D61743A20534552564F55
:105750002C3C736572766F3E2C3C616E676C653EC7
:105760000D0A0000736572766F3A20312D382C20B7
:10577000616E676C653A20302D3138300D0A0000BB
:1057800053544F50000000009C05002000100140C1
:1057900053746F7070656420616C6C20636F6E74FD
:1057A000696E756F7573206D6F6465732E0D0A00D9
:1057B00053657269616C204D6F6465202D20436FC5
:1057C0006E74000053657269616C204D6F64652DC5
:1057D0005320436F6E740000FC0000200FB42DE9CD
:1057E000F84F0027B8463D48007848B10121080726
:1057F000FDF7BEF90120FDF7B3F900203749087025
:105800009DF828000A2862D2DFE800F014171A2B4E
:105810003F0508515556FCF76DFC00BFFCF76AFCCC
:10582000FDF734F94AF2A5510820FBF755FCFDF7C6
:105830007DF94DE0FDF72AF94AE0FCF75BFC47E013
:105840000BAC2668D4F80490A56808232A460FFA02
:1058500089F130B2FDF738F82846FAF775FC0746AB
:1058600036E00BAC25686668D4F80890D4F80CA034
:10587000AAEB0600401CC3B2A9EB0500401CC2B253
:1058800031B228B2FCF77CFE22E00BAC25686668DA
:10589000D4F80890D4F80CA000200AF0FF0309F017
:1058A000FF0231B2009028B2FCF764FD10E0FBF774
:1058B000F9FE07460CE00BE0FBF714FF0446032C4F
:1058C00001D1012702E0012C00D1A71E00E000BF9A
:1058D00000BF3846BDE8F80F5DF814FB1800002043
:1058E0002DE9F04D07460E46FBF788F904460D46B4
:1058F0003A463346FAF77AFEDFF86CA0DFF86CB070
:105900001B4B0746884616F0004F4FF000020AD0A6
:10591000FAF7D0FF0AD900225B4638464146FAF72B
:10592000E1FF1BD212E0FAF7C5FF08D2002253466E
:1059300020462946FAF757FE04460D460EE000229F
:105940005B4638464146FAF7CDFF07D8002253465A
:1059500020462946FAF7A6FD04460D463146204664
:1059600065F31E01BDE8F08D0000F03F0000E03F50
:105970000000E0BF00000080C0E0F0783C9CCEEE6C
:10598000E76777737333333373737777E7EECEDC80
:10599000BC78F0E0C080000080F8FE1FC3F1FC3E40
:1059A0000FE7F37D1CCEE6E77333337373F7EFCE67
:1059B0009E7DF9E38F3FFCF1C71FFFFCFFFFFF0057
:1059C000FFFFFF00FFFFFF00FFFFFF0000000000E0
:1059D0000000FFFFFF00FFFFFF00FFFFFF00FFFFD2
:1059E000FFFFFF00FFFFFF00FFFFFF00FFFFFF00C3
:1059F000000000000000FFFFFF00FFFFFF00FFFFAF
:105A0000FF00FFFFFFFFFF00FFFFFF00FFFFFF00A2
:105A1000FFFFFF00000000000000FFFFFF00FFFF8E
:105A2000FF00FFFFFF00FFFF1FFFFF003FFFFFC062
:105A30001F7FFFE08F3F7FF0E0C0C0C0E0F07F7FBE
:105A40009FE0FFFF1FC0FFFF7F80FFFF0001071FD8
:105A50003C78F3CF9F3E3973F7E7EECCDCDDDDDD3C
:105A6000DCCEEEEFF77379BC9FCFE7F97C1F0F0315
:105A700000000000000001010307070E0E0E0C0CD1
:105A80000D0D0D0D0D0C0C0E0E0E0707030301007E
:105A900000000000000000000000C0C0E078389C5A
:105AA000DCCEEEF6777777FFFF0000FFFF00FFFF09
:105AB000FF00FFFF00000000000000F0FC3FC7F304
:105AC000F83ECFF3F93D9CCEE66767FFFF0000FF8D
:105AD000FF00FFFFFF00FFFF0000000004060707B4
